{
	"Smartcontract.sol": {
		"GestionnaireRisqueContrepartie": {
			"abi": [
				{
					"anonymous": false,
					"inputs": [
						{
							"indexed": true,
							"internalType": "address",
							"name": "contrepartie",
							"type": "address"
						},
						{
							"indexed": false,
							"internalType": "uint256",
							"name": "limiteExposition",
							"type": "uint256"
						}
					],
					"name": "ContrepartieAjoutee",
					"type": "event"
				},
				{
					"anonymous": false,
					"inputs": [
						{
							"indexed": true,
							"internalType": "address",
							"name": "contrepartie",
							"type": "address"
						},
						{
							"indexed": false,
							"internalType": "uint256",
							"name": "nouvelleExposition",
							"type": "uint256"
						}
					],
					"name": "ExpositionMiseAJour",
					"type": "event"
				},
				{
					"anonymous": false,
					"inputs": [
						{
							"indexed": true,
							"internalType": "address",
							"name": "contrepartie",
							"type": "address"
						},
						{
							"indexed": false,
							"internalType": "uint256",
							"name": "exposition",
							"type": "uint256"
						}
					],
					"name": "LimiteDepassee",
					"type": "event"
				},
				{
					"inputs": [
						{
							"internalType": "address",
							"name": "_portefeuille",
							"type": "address"
						},
						{
							"internalType": "uint256",
							"name": "_scoreCredit",
							"type": "uint256"
						},
						{
							"internalType": "uint256",
							"name": "_limiteExposition",
							"type": "uint256"
						}
					],
					"name": "ajouterContrepartie",
					"outputs": [],
					"stateMutability": "nonpayable",
					"type": "function"
				},
				{
					"inputs": [
						{
							"internalType": "address",
							"name": "_portefeuille",
							"type": "address"
						}
					],
					"name": "calculerRisque",
					"outputs": [
						{
							"internalType": "uint256",
							"name": "",
							"type": "uint256"
						}
					],
					"stateMutability": "view",
					"type": "function"
				},
				{
					"inputs": [
						{
							"internalType": "address",
							"name": "",
							"type": "address"
						}
					],
					"name": "contreparties",
					"outputs": [
						{
							"internalType": "address",
							"name": "portefeuille",
							"type": "address"
						},
						{
							"internalType": "uint256",
							"name": "scoreCredit",
							"type": "uint256"
						},
						{
							"internalType": "uint256",
							"name": "limiteExposition",
							"type": "uint256"
						},
						{
							"internalType": "uint256",
							"name": "expositionCourante",
							"type": "uint256"
						},
						{
							"internalType": "bool",
							"name": "estActif",
							"type": "bool"
						}
					],
					"stateMutability": "view",
					"type": "function"
				},
				{
					"inputs": [
						{
							"internalType": "address",
							"name": "",
							"type": "address"
						},
						{
							"internalType": "address",
							"name": "",
							"type": "address"
						}
					],
					"name": "expositions",
					"outputs": [
						{
							"internalType": "uint256",
							"name": "",
							"type": "uint256"
						}
					],
					"stateMutability": "view",
					"type": "function"
				},
				{
					"inputs": [
						{
							"internalType": "address",
							"name": "_portefeuille",
							"type": "address"
						},
						{
							"internalType": "uint256",
							"name": "_nouvelleExposition",
							"type": "uint256"
						}
					],
					"name": "mettreAJourExposition",
					"outputs": [],
					"stateMutability": "nonpayable",
					"type": "function"
				}
			],
			"devdoc": {
				"kind": "dev",
				"methods": {},
				"version": 1
			},
			"evm": {
				"assembly": "    /* \"Smartcontract.sol\":63:2596  contract GestionnaireRisqueContrepartie {... */\n  mstore(0x40, 0x80)\n  callvalue\n  dup1\n  iszero\n  tag_1\n  jumpi\n  0x00\n  dup1\n  revert\ntag_1:\n  pop\n  dataSize(sub_0)\n  dup1\n  dataOffset(sub_0)\n  0x00\n  codecopy\n  0x00\n  return\nstop\n\nsub_0: assembly {\n        /* \"Smartcontract.sol\":63:2596  contract GestionnaireRisqueContrepartie {... */\n      mstore(0x40, 0x80)\n      callvalue\n      dup1\n      iszero\n      tag_1\n      jumpi\n      0x00\n      dup1\n      revert\n    tag_1:\n      pop\n      jumpi(tag_2, lt(calldatasize, 0x04))\n      shr(0xe0, calldataload(0x00))\n      dup1\n      0x1922701e\n      eq\n      tag_3\n      jumpi\n      dup1\n      0x3edf688d\n      eq\n      tag_4\n      jumpi\n      dup1\n      0x760b1eee\n      eq\n      tag_5\n      jumpi\n      dup1\n      0x8e068eb0\n      eq\n      tag_6\n      jumpi\n      dup1\n      0xb4239e9b\n      eq\n      tag_7\n      jumpi\n    tag_2:\n      0x00\n      dup1\n      revert\n        /* \"Smartcontract.sol\":1416:2173  function mettreAJourExposition(address _portefeuille, uint256 _nouvelleExposition) public {... */\n    tag_3:\n      tag_8\n      0x04\n      dup1\n      calldatasize\n      sub\n      dup2\n      add\n      swap1\n      tag_9\n      swap2\n      swap1\n      tag_10\n      jump\t// in\n    tag_9:\n      tag_11\n      jump\t// in\n    tag_8:\n      stop\n        /* \"Smartcontract.sol\":349:418  mapping(address => mapping(address => uint256))... */\n    tag_4:\n      tag_12\n      0x04\n      dup1\n      calldatasize\n      sub\n      dup2\n      add\n      swap1\n      tag_13\n      swap2\n      swap1\n      tag_14\n      jump\t// in\n    tag_13:\n      tag_15\n      jump\t// in\n    tag_12:\n      mload(0x40)\n      tag_16\n      swap2\n      swap1\n      tag_17\n      jump\t// in\n    tag_16:\n      mload(0x40)\n      dup1\n      swap2\n      sub\n      swap1\n      return\n        /* \"Smartcontract.sol\":291:344  mapping(address => Contrepartie) public contreparties */\n    tag_5:\n      tag_18\n      0x04\n      dup1\n      calldatasize\n      sub\n      dup2\n      add\n      swap1\n      tag_19\n      swap2\n      swap1\n      tag_20\n      jump\t// in\n    tag_19:\n      tag_21\n      jump\t// in\n    tag_18:\n      mload(0x40)\n      tag_22\n      swap6\n      swap5\n      swap4\n      swap3\n      swap2\n      swap1\n      tag_23\n      jump\t// in\n    tag_22:\n      mload(0x40)\n      dup1\n      swap2\n      sub\n      swap1\n      return\n        /* \"Smartcontract.sol\":2181:2592  function calculerRisque(address _portefeuille) public view returns (uint256) {... */\n    tag_6:\n      tag_24\n      0x04\n      dup1\n      calldatasize\n      sub\n      dup2\n      add\n      swap1\n      tag_25\n      swap2\n      swap1\n      tag_20\n      jump\t// in\n    tag_25:\n      tag_26\n      jump\t// in\n    tag_24:\n      mload(0x40)\n      tag_27\n      swap2\n      swap1\n      tag_17\n      jump\t// in\n    tag_27:\n      mload(0x40)\n      dup1\n      swap2\n      sub\n      swap1\n      return\n        /* \"Smartcontract.sol\":771:1411  function ajouterContrepartie(address _portefeuille, uint256 _scoreCredit, uint256 _limiteExposition) public {... */\n    tag_7:\n      tag_28\n      0x04\n      dup1\n      calldatasize\n      sub\n      dup2\n      add\n      swap1\n      tag_29\n      swap2\n      swap1\n      tag_30\n      jump\t// in\n    tag_29:\n      tag_31\n      jump\t// in\n    tag_28:\n      stop\n        /* \"Smartcontract.sol\":1416:2173  function mettreAJourExposition(address _portefeuille, uint256 _nouvelleExposition) public {... */\n    tag_11:\n        /* \"Smartcontract.sol\":1569:1582  contreparties */\n      0x00\n        /* \"Smartcontract.sol\":1569:1597  contreparties[_portefeuille] */\n      dup1\n        /* \"Smartcontract.sol\":1583:1596  _portefeuille */\n      dup4\n        /* \"Smartcontract.sol\":1569:1597  contreparties[_portefeuille] */\n      0xffffffffffffffffffffffffffffffffffffffff\n      and\n      0xffffffffffffffffffffffffffffffffffffffff\n      and\n      dup2\n      mstore\n      0x20\n      add\n      swap1\n      dup2\n      mstore\n      0x20\n      add\n      0x00\n      keccak256\n        /* \"Smartcontract.sol\":1569:1606  contreparties[_portefeuille].estActif */\n      0x04\n      add\n      0x00\n      swap1\n      sload\n      swap1\n      0x0100\n      exp\n      swap1\n      div\n      0xff\n      and\n        /* \"Smartcontract.sol\":1561:1647  require(contreparties[_portefeuille].estActif, \"Contrepartie inactive ou inexistante\") */\n      tag_33\n      jumpi\n      mload(0x40)\n      0x08c379a000000000000000000000000000000000000000000000000000000000\n      dup2\n      mstore\n      0x04\n      add\n      tag_34\n      swap1\n      tag_35\n      jump\t// in\n    tag_34:\n      mload(0x40)\n      dup1\n      swap2\n      sub\n      swap1\n      revert\n    tag_33:\n        /* \"Smartcontract.sol\":1743:1762  _nouvelleExposition */\n      dup1\n        /* \"Smartcontract.sol\":1692:1705  contreparties */\n      0x00\n        /* \"Smartcontract.sol\":1692:1720  contreparties[_portefeuille] */\n      dup1\n        /* \"Smartcontract.sol\":1706:1719  _portefeuille */\n      dup5\n        /* \"Smartcontract.sol\":1692:1720  contreparties[_portefeuille] */\n      0xffffffffffffffffffffffffffffffffffffffff\n      and\n      0xffffffffffffffffffffffffffffffffffffffff\n      and\n      dup2\n      mstore\n      0x20\n      add\n      swap1\n      dup2\n      mstore\n      0x20\n      add\n      0x00\n      keccak256\n        /* \"Smartcontract.sol\":1692:1739  contreparties[_portefeuille].expositionCourante */\n      0x03\n      add\n      0x00\n        /* \"Smartcontract.sol\":1692:1762  contreparties[_portefeuille].expositionCourante += _nouvelleExposition */\n      dup3\n      dup3\n      sload\n      tag_36\n      swap2\n      swap1\n      tag_37\n      jump\t// in\n    tag_36:\n      swap3\n      pop\n      pop\n      dup2\n      swap1\n      sstore\n      pop\n        /* \"Smartcontract.sol\":1871:1884  contreparties */\n      0x00\n        /* \"Smartcontract.sol\":1871:1899  contreparties[_portefeuille] */\n      dup1\n        /* \"Smartcontract.sol\":1885:1898  _portefeuille */\n      dup4\n        /* \"Smartcontract.sol\":1871:1899  contreparties[_portefeuille] */\n      0xffffffffffffffffffffffffffffffffffffffff\n      and\n      0xffffffffffffffffffffffffffffffffffffffff\n      and\n      dup2\n      mstore\n      0x20\n      add\n      swap1\n      dup2\n      mstore\n      0x20\n      add\n      0x00\n      keccak256\n        /* \"Smartcontract.sol\":1871:1916  contreparties[_portefeuille].limiteExposition */\n      0x02\n      add\n      sload\n        /* \"Smartcontract.sol\":1821:1834  contreparties */\n      0x00\n        /* \"Smartcontract.sol\":1821:1849  contreparties[_portefeuille] */\n      dup1\n        /* \"Smartcontract.sol\":1835:1848  _portefeuille */\n      dup5\n        /* \"Smartcontract.sol\":1821:1849  contreparties[_portefeuille] */\n      0xffffffffffffffffffffffffffffffffffffffff\n      and\n      0xffffffffffffffffffffffffffffffffffffffff\n      and\n      dup2\n      mstore\n      0x20\n      add\n      swap1\n      dup2\n      mstore\n      0x20\n      add\n      0x00\n      keccak256\n        /* \"Smartcontract.sol\":1821:1868  contreparties[_portefeuille].expositionCourante */\n      0x03\n      add\n      sload\n        /* \"Smartcontract.sol\":1821:1916  contreparties[_portefeuille].expositionCourante > contreparties[_portefeuille].limiteExposition */\n      gt\n        /* \"Smartcontract.sol\":1817:2020  if (contreparties[_portefeuille].expositionCourante > contreparties[_portefeuille].limiteExposition) {... */\n      iszero\n      tag_38\n      jumpi\n        /* \"Smartcontract.sol\":1949:1962  _portefeuille */\n      dup2\n        /* \"Smartcontract.sol\":1934:2012  LimiteDepassee(_portefeuille, contreparties[_portefeuille].expositionCourante) */\n      0xffffffffffffffffffffffffffffffffffffffff\n      and\n      0x74b737e83b985a0afa446389d70cccab99d200a0a63101114130a2a2dfbba912\n        /* \"Smartcontract.sol\":1964:1977  contreparties */\n      0x00\n        /* \"Smartcontract.sol\":1964:1992  contreparties[_portefeuille] */\n      dup1\n        /* \"Smartcontract.sol\":1978:1991  _portefeuille */\n      dup6\n        /* \"Smartcontract.sol\":1964:1992  contreparties[_portefeuille] */\n      0xffffffffffffffffffffffffffffffffffffffff\n      and\n      0xffffffffffffffffffffffffffffffffffffffff\n      and\n      dup2\n      mstore\n      0x20\n      add\n      swap1\n      dup2\n      mstore\n      0x20\n      add\n      0x00\n      keccak256\n        /* \"Smartcontract.sol\":1964:2011  contreparties[_portefeuille].expositionCourante */\n      0x03\n      add\n      sload\n        /* \"Smartcontract.sol\":1934:2012  LimiteDepassee(_portefeuille, contreparties[_portefeuille].expositionCourante) */\n      mload(0x40)\n      tag_39\n      swap2\n      swap1\n      tag_17\n      jump\t// in\n    tag_39:\n      mload(0x40)\n      dup1\n      swap2\n      sub\n      swap1\n      log2\n        /* \"Smartcontract.sol\":1817:2020  if (contreparties[_portefeuille].expositionCourante > contreparties[_portefeuille].limiteExposition) {... */\n    tag_38:\n        /* \"Smartcontract.sol\":2106:2119  _portefeuille */\n      dup2\n        /* \"Smartcontract.sol\":2086:2169  ExpositionMiseAJour(_portefeuille, contreparties[_portefeuille].expositionCourante) */\n      0xffffffffffffffffffffffffffffffffffffffff\n      and\n      0xa6b582f9fa77f5eb299250871d3b51c8ff3655dd554da3f9abb294b3e92f8e1f\n        /* \"Smartcontract.sol\":2121:2134  contreparties */\n      0x00\n        /* \"Smartcontract.sol\":2121:2149  contreparties[_portefeuille] */\n      dup1\n        /* \"Smartcontract.sol\":2135:2148  _portefeuille */\n      dup6\n        /* \"Smartcontract.sol\":2121:2149  contreparties[_portefeuille] */\n      0xffffffffffffffffffffffffffffffffffffffff\n      and\n      0xffffffffffffffffffffffffffffffffffffffff\n      and\n      dup2\n      mstore\n      0x20\n      add\n      swap1\n      dup2\n      mstore\n      0x20\n      add\n      0x00\n      keccak256\n        /* \"Smartcontract.sol\":2121:2168  contreparties[_portefeuille].expositionCourante */\n      0x03\n      add\n      sload\n        /* \"Smartcontract.sol\":2086:2169  ExpositionMiseAJour(_portefeuille, contreparties[_portefeuille].expositionCourante) */\n      mload(0x40)\n      tag_40\n      swap2\n      swap1\n      tag_17\n      jump\t// in\n    tag_40:\n      mload(0x40)\n      dup1\n      swap2\n      sub\n      swap1\n      log2\n        /* \"Smartcontract.sol\":1416:2173  function mettreAJourExposition(address _portefeuille, uint256 _nouvelleExposition) public {... */\n      pop\n      pop\n      jump\t// out\n        /* \"Smartcontract.sol\":349:418  mapping(address => mapping(address => uint256))... */\n    tag_15:\n      mstore(0x20, 0x01)\n      dup2\n      0x00\n      mstore\n      mstore(0x20, keccak256(0x00, 0x40))\n      dup1\n      0x00\n      mstore\n      keccak256(0x00, 0x40)\n      0x00\n      swap2\n      pop\n      swap2\n      pop\n      pop\n      sload\n      dup2\n      jump\t// out\n        /* \"Smartcontract.sol\":291:344  mapping(address => Contrepartie) public contreparties */\n    tag_21:\n      mstore(0x20, 0x00)\n      dup1\n      0x00\n      mstore\n      keccak256(0x00, 0x40)\n      0x00\n      swap2\n      pop\n      swap1\n      pop\n      dup1\n      0x00\n      add\n      0x00\n      swap1\n      sload\n      swap1\n      0x0100\n      exp\n      swap1\n      div\n      0xffffffffffffffffffffffffffffffffffffffff\n      and\n      swap1\n      dup1\n      0x01\n      add\n      sload\n      swap1\n      dup1\n      0x02\n      add\n      sload\n      swap1\n      dup1\n      0x03\n      add\n      sload\n      swap1\n      dup1\n      0x04\n      add\n      0x00\n      swap1\n      sload\n      swap1\n      0x0100\n      exp\n      swap1\n      div\n      0xff\n      and\n      swap1\n      pop\n      dup6\n      jump\t// out\n        /* \"Smartcontract.sol\":2181:2592  function calculerRisque(address _portefeuille) public view returns (uint256) {... */\n    tag_26:\n        /* \"Smartcontract.sol\":2249:2256  uint256 */\n      0x00\n        /* \"Smartcontract.sol\":2370:2371  0 */\n      dup1\n        /* \"Smartcontract.sol\":2317:2372  contreparties[_portefeuille].portefeuille != address(0) */\n      0xffffffffffffffffffffffffffffffffffffffff\n      and\n        /* \"Smartcontract.sol\":2317:2330  contreparties */\n      0x00\n        /* \"Smartcontract.sol\":2317:2345  contreparties[_portefeuille] */\n      dup1\n        /* \"Smartcontract.sol\":2331:2344  _portefeuille */\n      dup5\n        /* \"Smartcontract.sol\":2317:2345  contreparties[_portefeuille] */\n      0xffffffffffffffffffffffffffffffffffffffff\n      and\n      0xffffffffffffffffffffffffffffffffffffffff\n      and\n      dup2\n      mstore\n      0x20\n      add\n      swap1\n      dup2\n      mstore\n      0x20\n      add\n      0x00\n      keccak256\n        /* \"Smartcontract.sol\":2317:2358  contreparties[_portefeuille].portefeuille */\n      0x00\n      add\n      0x00\n      swap1\n      sload\n      swap1\n      0x0100\n      exp\n      swap1\n      div\n      0xffffffffffffffffffffffffffffffffffffffff\n      and\n        /* \"Smartcontract.sol\":2317:2372  contreparties[_portefeuille].portefeuille != address(0) */\n      0xffffffffffffffffffffffffffffffffffffffff\n      and\n      sub\n        /* \"Smartcontract.sol\":2309:2401  require(contreparties[_portefeuille].portefeuille != address(0), \"Contrepartie inexistante\") */\n      tag_42\n      jumpi\n      mload(0x40)\n      0x08c379a000000000000000000000000000000000000000000000000000000000\n      dup2\n      mstore\n      0x04\n      add\n      tag_43\n      swap1\n      tag_44\n      jump\t// in\n    tag_43:\n      mload(0x40)\n      dup1\n      swap2\n      sub\n      swap1\n      revert\n    tag_42:\n        /* \"Smartcontract.sol\":2446:2460  uint256 risque */\n      0x00\n        /* \"Smartcontract.sol\":2521:2534  contreparties */\n      dup1\n        /* \"Smartcontract.sol\":2521:2549  contreparties[_portefeuille] */\n      0x00\n        /* \"Smartcontract.sol\":2535:2548  _portefeuille */\n      dup5\n        /* \"Smartcontract.sol\":2521:2549  contreparties[_portefeuille] */\n      0xffffffffffffffffffffffffffffffffffffffff\n      and\n      0xffffffffffffffffffffffffffffffffffffffff\n      and\n      dup2\n      mstore\n      0x20\n      add\n      swap1\n      dup2\n      mstore\n      0x20\n      add\n      0x00\n      keccak256\n        /* \"Smartcontract.sol\":2521:2566  contreparties[_portefeuille].limiteExposition */\n      0x02\n      add\n      sload\n        /* \"Smartcontract.sol\":2514:2517  100 */\n      0x64\n        /* \"Smartcontract.sol\":2464:2477  contreparties */\n      0x00\n        /* \"Smartcontract.sol\":2464:2492  contreparties[_portefeuille] */\n      dup1\n        /* \"Smartcontract.sol\":2478:2491  _portefeuille */\n      dup7\n        /* \"Smartcontract.sol\":2464:2492  contreparties[_portefeuille] */\n      0xffffffffffffffffffffffffffffffffffffffff\n      and\n      0xffffffffffffffffffffffffffffffffffffffff\n      and\n      dup2\n      mstore\n      0x20\n      add\n      swap1\n      dup2\n      mstore\n      0x20\n      add\n      0x00\n      keccak256\n        /* \"Smartcontract.sol\":2464:2511  contreparties[_portefeuille].expositionCourante */\n      0x03\n      add\n      sload\n        /* \"Smartcontract.sol\":2464:2517  contreparties[_portefeuille].expositionCourante * 100 */\n      tag_45\n      swap2\n      swap1\n      tag_46\n      jump\t// in\n    tag_45:\n        /* \"Smartcontract.sol\":2463:2566  (contreparties[_portefeuille].expositionCourante * 100) / contreparties[_portefeuille].limiteExposition */\n      tag_47\n      swap2\n      swap1\n      tag_48\n      jump\t// in\n    tag_47:\n        /* \"Smartcontract.sol\":2446:2566  uint256 risque = (contreparties[_portefeuille].expositionCourante * 100) / contreparties[_portefeuille].limiteExposition */\n      swap1\n      pop\n        /* \"Smartcontract.sol\":2582:2588  risque */\n      dup1\n        /* \"Smartcontract.sol\":2575:2588  return risque */\n      swap2\n      pop\n      pop\n        /* \"Smartcontract.sol\":2181:2592  function calculerRisque(address _portefeuille) public view returns (uint256) {... */\n      swap2\n      swap1\n      pop\n      jump\t// out\n        /* \"Smartcontract.sol\":771:1411  function ajouterContrepartie(address _portefeuille, uint256 _scoreCredit, uint256 _limiteExposition) public {... */\n    tag_31:\n        /* \"Smartcontract.sol\":998:999  0 */\n      0x00\n        /* \"Smartcontract.sol\":945:1000  contreparties[_portefeuille].portefeuille == address(0) */\n      0xffffffffffffffffffffffffffffffffffffffff\n      and\n        /* \"Smartcontract.sol\":945:958  contreparties */\n      0x00\n        /* \"Smartcontract.sol\":945:973  contreparties[_portefeuille] */\n      dup1\n        /* \"Smartcontract.sol\":959:972  _portefeuille */\n      dup6\n        /* \"Smartcontract.sol\":945:973  contreparties[_portefeuille] */\n      0xffffffffffffffffffffffffffffffffffffffff\n      and\n      0xffffffffffffffffffffffffffffffffffffffff\n      and\n      dup2\n      mstore\n      0x20\n      add\n      swap1\n      dup2\n      mstore\n      0x20\n      add\n      0x00\n      keccak256\n        /* \"Smartcontract.sol\":945:986  contreparties[_portefeuille].portefeuille */\n      0x00\n      add\n      0x00\n      swap1\n      sload\n      swap1\n      0x0100\n      exp\n      swap1\n      div\n      0xffffffffffffffffffffffffffffffffffffffff\n      and\n        /* \"Smartcontract.sol\":945:1000  contreparties[_portefeuille].portefeuille == address(0) */\n      0xffffffffffffffffffffffffffffffffffffffff\n      and\n      eq\n        /* \"Smartcontract.sol\":937:1029  require(contreparties[_portefeuille].portefeuille == address(0), \"Contrepartie existe deja\") */\n      tag_50\n      jumpi\n      mload(0x40)\n      0x08c379a000000000000000000000000000000000000000000000000000000000\n      dup2\n      mstore\n      0x04\n      add\n      tag_51\n      swap1\n      tag_52\n      jump\t// in\n    tag_51:\n      mload(0x40)\n      dup1\n      swap2\n      sub\n      swap1\n      revert\n    tag_50:\n        /* \"Smartcontract.sol\":1110:1308  Contrepartie({... */\n      mload(0x40)\n      dup1\n      0xa0\n      add\n      0x40\n      mstore\n      dup1\n        /* \"Smartcontract.sol\":1148:1161  _portefeuille */\n      dup5\n        /* \"Smartcontract.sol\":1110:1308  Contrepartie({... */\n      0xffffffffffffffffffffffffffffffffffffffff\n      and\n      dup2\n      mstore\n      0x20\n      add\n        /* \"Smartcontract.sol\":1185:1197  _scoreCredit */\n      dup4\n        /* \"Smartcontract.sol\":1110:1308  Contrepartie({... */\n      dup2\n      mstore\n      0x20\n      add\n        /* \"Smartcontract.sol\":1226:1243  _limiteExposition */\n      dup3\n        /* \"Smartcontract.sol\":1110:1308  Contrepartie({... */\n      dup2\n      mstore\n      0x20\n      add\n        /* \"Smartcontract.sol\":1274:1275  0 */\n      0x00\n        /* \"Smartcontract.sol\":1110:1308  Contrepartie({... */\n      dup2\n      mstore\n      0x20\n      add\n        /* \"Smartcontract.sol\":1296:1300  true */\n      0x01\n        /* \"Smartcontract.sol\":1110:1308  Contrepartie({... */\n      iszero\n      iszero\n      dup2\n      mstore\n      pop\n        /* \"Smartcontract.sol\":1079:1092  contreparties */\n      0x00\n        /* \"Smartcontract.sol\":1079:1107  contreparties[_portefeuille] */\n      dup1\n        /* \"Smartcontract.sol\":1093:1106  _portefeuille */\n      dup6\n        /* \"Smartcontract.sol\":1079:1107  contreparties[_portefeuille] */\n      0xffffffffffffffffffffffffffffffffffffffff\n      and\n      0xffffffffffffffffffffffffffffffffffffffff\n      and\n      dup2\n      mstore\n      0x20\n      add\n      swap1\n      dup2\n      mstore\n      0x20\n      add\n      0x00\n      keccak256\n        /* \"Smartcontract.sol\":1079:1308  contreparties[_portefeuille] = Contrepartie({... */\n      0x00\n      dup3\n      add\n      mload\n      dup2\n      0x00\n      add\n      exp(0x0100, 0x00)\n      dup2\n      sload\n      dup2\n      0xffffffffffffffffffffffffffffffffffffffff\n      mul\n      not\n      and\n      swap1\n      dup4\n      0xffffffffffffffffffffffffffffffffffffffff\n      and\n      mul\n      or\n      swap1\n      sstore\n      pop\n      0x20\n      dup3\n      add\n      mload\n      dup2\n      0x01\n      add\n      sstore\n      0x40\n      dup3\n      add\n      mload\n      dup2\n      0x02\n      add\n      sstore\n      0x60\n      dup3\n      add\n      mload\n      dup2\n      0x03\n      add\n      sstore\n      0x80\n      dup3\n      add\n      mload\n      dup2\n      0x04\n      add\n      exp(0x0100, 0x00)\n      dup2\n      sload\n      dup2\n      0xff\n      mul\n      not\n      and\n      swap1\n      dup4\n      iszero\n      iszero\n      mul\n      or\n      swap1\n      sstore\n      pop\n      swap1\n      pop\n      pop\n        /* \"Smartcontract.sol\":1374:1387  _portefeuille */\n      dup3\n        /* \"Smartcontract.sol\":1354:1407  ContrepartieAjoutee(_portefeuille, _limiteExposition) */\n      0xffffffffffffffffffffffffffffffffffffffff\n      and\n      0x747a12c5b34abe212a3a26b67b9a8edf3ceb6bd68207c9f6c11a5161432e1614\n        /* \"Smartcontract.sol\":1389:1406  _limiteExposition */\n      dup3\n        /* \"Smartcontract.sol\":1354:1407  ContrepartieAjoutee(_portefeuille, _limiteExposition) */\n      mload(0x40)\n      tag_53\n      swap2\n      swap1\n      tag_17\n      jump\t// in\n    tag_53:\n      mload(0x40)\n      dup1\n      swap2\n      sub\n      swap1\n      log2\n        /* \"Smartcontract.sol\":771:1411  function ajouterContrepartie(address _portefeuille, uint256 _scoreCredit, uint256 _limiteExposition) public {... */\n      pop\n      pop\n      pop\n      jump\t// out\n        /* \"#utility.yul\":88:205   */\n    tag_55:\n        /* \"#utility.yul\":197:198   */\n      0x00\n        /* \"#utility.yul\":194:195   */\n      dup1\n        /* \"#utility.yul\":187:199   */\n      revert\n        /* \"#utility.yul\":334:460   */\n    tag_57:\n        /* \"#utility.yul\":371:378   */\n      0x00\n        /* \"#utility.yul\":411:453   */\n      0xffffffffffffffffffffffffffffffffffffffff\n        /* \"#utility.yul\":404:409   */\n      dup3\n        /* \"#utility.yul\":400:454   */\n      and\n        /* \"#utility.yul\":389:454   */\n      swap1\n      pop\n        /* \"#utility.yul\":334:460   */\n      swap2\n      swap1\n      pop\n      jump\t// out\n        /* \"#utility.yul\":466:562   */\n    tag_58:\n        /* \"#utility.yul\":503:510   */\n      0x00\n        /* \"#utility.yul\":532:556   */\n      tag_83\n        /* \"#utility.yul\":550:555   */\n      dup3\n        /* \"#utility.yul\":532:556   */\n      tag_57\n      jump\t// in\n    tag_83:\n        /* \"#utility.yul\":521:556   */\n      swap1\n      pop\n        /* \"#utility.yul\":466:562   */\n      swap2\n      swap1\n      pop\n      jump\t// out\n        /* \"#utility.yul\":568:690   */\n    tag_59:\n        /* \"#utility.yul\":641:665   */\n      tag_85\n        /* \"#utility.yul\":659:664   */\n      dup2\n        /* \"#utility.yul\":641:665   */\n      tag_58\n      jump\t// in\n    tag_85:\n        /* \"#utility.yul\":634:639   */\n      dup2\n        /* \"#utility.yul\":631:666   */\n      eq\n        /* \"#utility.yul\":621:684   */\n      tag_86\n      jumpi\n        /* \"#utility.yul\":680:681   */\n      0x00\n        /* \"#utility.yul\":677:678   */\n      dup1\n        /* \"#utility.yul\":670:682   */\n      revert\n        /* \"#utility.yul\":621:684   */\n    tag_86:\n        /* \"#utility.yul\":568:690   */\n      pop\n      jump\t// out\n        /* \"#utility.yul\":696:835   */\n    tag_60:\n        /* \"#utility.yul\":742:747   */\n      0x00\n        /* \"#utility.yul\":780:786   */\n      dup2\n        /* \"#utility.yul\":767:787   */\n      calldataload\n        /* \"#utility.yul\":758:787   */\n      swap1\n      pop\n        /* \"#utility.yul\":796:829   */\n      tag_88\n        /* \"#utility.yul\":823:828   */\n      dup2\n        /* \"#utility.yul\":796:829   */\n      tag_59\n      jump\t// in\n    tag_88:\n        /* \"#utility.yul\":696:835   */\n      swap3\n      swap2\n      pop\n      pop\n      jump\t// out\n        /* \"#utility.yul\":841:918   */\n    tag_61:\n        /* \"#utility.yul\":878:885   */\n      0x00\n        /* \"#utility.yul\":907:912   */\n      dup2\n        /* \"#utility.yul\":896:912   */\n      swap1\n      pop\n        /* \"#utility.yul\":841:918   */\n      swap2\n      swap1\n      pop\n      jump\t// out\n        /* \"#utility.yul\":924:1046   */\n    tag_62:\n        /* \"#utility.yul\":997:1021   */\n      tag_91\n        /* \"#utility.yul\":1015:1020   */\n      dup2\n        /* \"#utility.yul\":997:1021   */\n      tag_61\n      jump\t// in\n    tag_91:\n        /* \"#utility.yul\":990:995   */\n      dup2\n        /* \"#utility.yul\":987:1022   */\n      eq\n        /* \"#utility.yul\":977:1040   */\n      tag_92\n      jumpi\n        /* \"#utility.yul\":1036:1037   */\n      0x00\n        /* \"#utility.yul\":1033:1034   */\n      dup1\n        /* \"#utility.yul\":1026:1038   */\n      revert\n        /* \"#utility.yul\":977:1040   */\n    tag_92:\n        /* \"#utility.yul\":924:1046   */\n      pop\n      jump\t// out\n        /* \"#utility.yul\":1052:1191   */\n    tag_63:\n        /* \"#utility.yul\":1098:1103   */\n      0x00\n        /* \"#utility.yul\":1136:1142   */\n      dup2\n        /* \"#utility.yul\":1123:1143   */\n      calldataload\n        /* \"#utility.yul\":1114:1143   */\n      swap1\n      pop\n        /* \"#utility.yul\":1152:1185   */\n      tag_94\n        /* \"#utility.yul\":1179:1184   */\n      dup2\n        /* \"#utility.yul\":1152:1185   */\n      tag_62\n      jump\t// in\n    tag_94:\n        /* \"#utility.yul\":1052:1191   */\n      swap3\n      swap2\n      pop\n      pop\n      jump\t// out\n        /* \"#utility.yul\":1197:1671   */\n    tag_10:\n        /* \"#utility.yul\":1265:1271   */\n      0x00\n        /* \"#utility.yul\":1273:1279   */\n      dup1\n        /* \"#utility.yul\":1322:1324   */\n      0x40\n        /* \"#utility.yul\":1310:1319   */\n      dup4\n        /* \"#utility.yul\":1301:1308   */\n      dup6\n        /* \"#utility.yul\":1297:1320   */\n      sub\n        /* \"#utility.yul\":1293:1325   */\n      slt\n        /* \"#utility.yul\":1290:1409   */\n      iszero\n      tag_96\n      jumpi\n        /* \"#utility.yul\":1328:1407   */\n      tag_97\n      tag_55\n      jump\t// in\n    tag_97:\n        /* \"#utility.yul\":1290:1409   */\n    tag_96:\n        /* \"#utility.yul\":1448:1449   */\n      0x00\n        /* \"#utility.yul\":1473:1526   */\n      tag_98\n        /* \"#utility.yul\":1518:1525   */\n      dup6\n        /* \"#utility.yul\":1509:1515   */\n      dup3\n        /* \"#utility.yul\":1498:1507   */\n      dup7\n        /* \"#utility.yul\":1494:1516   */\n      add\n        /* \"#utility.yul\":1473:1526   */\n      tag_60\n      jump\t// in\n    tag_98:\n        /* \"#utility.yul\":1463:1526   */\n      swap3\n      pop\n        /* \"#utility.yul\":1419:1536   */\n      pop\n        /* \"#utility.yul\":1575:1577   */\n      0x20\n        /* \"#utility.yul\":1601:1654   */\n      tag_99\n        /* \"#utility.yul\":1646:1653   */\n      dup6\n        /* \"#utility.yul\":1637:1643   */\n      dup3\n        /* \"#utility.yul\":1626:1635   */\n      dup7\n        /* \"#utility.yul\":1622:1644   */\n      add\n        /* \"#utility.yul\":1601:1654   */\n      tag_63\n      jump\t// in\n    tag_99:\n        /* \"#utility.yul\":1591:1654   */\n      swap2\n      pop\n        /* \"#utility.yul\":1546:1664   */\n      pop\n        /* \"#utility.yul\":1197:1671   */\n      swap3\n      pop\n      swap3\n      swap1\n      pop\n      jump\t// out\n        /* \"#utility.yul\":1677:2151   */\n    tag_14:\n        /* \"#utility.yul\":1745:1751   */\n      0x00\n        /* \"#utility.yul\":1753:1759   */\n      dup1\n        /* \"#utility.yul\":1802:1804   */\n      0x40\n        /* \"#utility.yul\":1790:1799   */\n      dup4\n        /* \"#utility.yul\":1781:1788   */\n      dup6\n        /* \"#utility.yul\":1777:1800   */\n      sub\n        /* \"#utility.yul\":1773:1805   */\n      slt\n        /* \"#utility.yul\":1770:1889   */\n      iszero\n      tag_101\n      jumpi\n        /* \"#utility.yul\":1808:1887   */\n      tag_102\n      tag_55\n      jump\t// in\n    tag_102:\n        /* \"#utility.yul\":1770:1889   */\n    tag_101:\n        /* \"#utility.yul\":1928:1929   */\n      0x00\n        /* \"#utility.yul\":1953:2006   */\n      tag_103\n        /* \"#utility.yul\":1998:2005   */\n      dup6\n        /* \"#utility.yul\":1989:1995   */\n      dup3\n        /* \"#utility.yul\":1978:1987   */\n      dup7\n        /* \"#utility.yul\":1974:1996   */\n      add\n        /* \"#utility.yul\":1953:2006   */\n      tag_60\n      jump\t// in\n    tag_103:\n        /* \"#utility.yul\":1943:2006   */\n      swap3\n      pop\n        /* \"#utility.yul\":1899:2016   */\n      pop\n        /* \"#utility.yul\":2055:2057   */\n      0x20\n        /* \"#utility.yul\":2081:2134   */\n      tag_104\n        /* \"#utility.yul\":2126:2133   */\n      dup6\n        /* \"#utility.yul\":2117:2123   */\n      dup3\n        /* \"#utility.yul\":2106:2115   */\n      dup7\n        /* \"#utility.yul\":2102:2124   */\n      add\n        /* \"#utility.yul\":2081:2134   */\n      tag_60\n      jump\t// in\n    tag_104:\n        /* \"#utility.yul\":2071:2134   */\n      swap2\n      pop\n        /* \"#utility.yul\":2026:2144   */\n      pop\n        /* \"#utility.yul\":1677:2151   */\n      swap3\n      pop\n      swap3\n      swap1\n      pop\n      jump\t// out\n        /* \"#utility.yul\":2157:2275   */\n    tag_64:\n        /* \"#utility.yul\":2244:2268   */\n      tag_106\n        /* \"#utility.yul\":2262:2267   */\n      dup2\n        /* \"#utility.yul\":2244:2268   */\n      tag_61\n      jump\t// in\n    tag_106:\n        /* \"#utility.yul\":2239:2242   */\n      dup3\n        /* \"#utility.yul\":2232:2269   */\n      mstore\n        /* \"#utility.yul\":2157:2275   */\n      pop\n      pop\n      jump\t// out\n        /* \"#utility.yul\":2281:2503   */\n    tag_17:\n        /* \"#utility.yul\":2374:2378   */\n      0x00\n        /* \"#utility.yul\":2412:2414   */\n      0x20\n        /* \"#utility.yul\":2401:2410   */\n      dup3\n        /* \"#utility.yul\":2397:2415   */\n      add\n        /* \"#utility.yul\":2389:2415   */\n      swap1\n      pop\n        /* \"#utility.yul\":2425:2496   */\n      tag_108\n        /* \"#utility.yul\":2493:2494   */\n      0x00\n        /* \"#utility.yul\":2482:2491   */\n      dup4\n        /* \"#utility.yul\":2478:2495   */\n      add\n        /* \"#utility.yul\":2469:2475   */\n      dup5\n        /* \"#utility.yul\":2425:2496   */\n      tag_64\n      jump\t// in\n    tag_108:\n        /* \"#utility.yul\":2281:2503   */\n      swap3\n      swap2\n      pop\n      pop\n      jump\t// out\n        /* \"#utility.yul\":2509:2838   */\n    tag_20:\n        /* \"#utility.yul\":2568:2574   */\n      0x00\n        /* \"#utility.yul\":2617:2619   */\n      0x20\n        /* \"#utility.yul\":2605:2614   */\n      dup3\n        /* \"#utility.yul\":2596:2603   */\n      dup5\n        /* \"#utility.yul\":2592:2615   */\n      sub\n        /* \"#utility.yul\":2588:2620   */\n      slt\n        /* \"#utility.yul\":2585:2704   */\n      iszero\n      tag_110\n      jumpi\n        /* \"#utility.yul\":2623:2702   */\n      tag_111\n      tag_55\n      jump\t// in\n    tag_111:\n        /* \"#utility.yul\":2585:2704   */\n    tag_110:\n        /* \"#utility.yul\":2743:2744   */\n      0x00\n        /* \"#utility.yul\":2768:2821   */\n      tag_112\n        /* \"#utility.yul\":2813:2820   */\n      dup5\n        /* \"#utility.yul\":2804:2810   */\n      dup3\n        /* \"#utility.yul\":2793:2802   */\n      dup6\n        /* \"#utility.yul\":2789:2811   */\n      add\n        /* \"#utility.yul\":2768:2821   */\n      tag_60\n      jump\t// in\n    tag_112:\n        /* \"#utility.yul\":2758:2821   */\n      swap2\n      pop\n        /* \"#utility.yul\":2714:2831   */\n      pop\n        /* \"#utility.yul\":2509:2838   */\n      swap3\n      swap2\n      pop\n      pop\n      jump\t// out\n        /* \"#utility.yul\":2844:2962   */\n    tag_65:\n        /* \"#utility.yul\":2931:2955   */\n      tag_114\n        /* \"#utility.yul\":2949:2954   */\n      dup2\n        /* \"#utility.yul\":2931:2955   */\n      tag_58\n      jump\t// in\n    tag_114:\n        /* \"#utility.yul\":2926:2929   */\n      dup3\n        /* \"#utility.yul\":2919:2956   */\n      mstore\n        /* \"#utility.yul\":2844:2962   */\n      pop\n      pop\n      jump\t// out\n        /* \"#utility.yul\":2968:3058   */\n    tag_66:\n        /* \"#utility.yul\":3002:3009   */\n      0x00\n        /* \"#utility.yul\":3045:3050   */\n      dup2\n        /* \"#utility.yul\":3038:3051   */\n      iszero\n        /* \"#utility.yul\":3031:3052   */\n      iszero\n        /* \"#utility.yul\":3020:3052   */\n      swap1\n      pop\n        /* \"#utility.yul\":2968:3058   */\n      swap2\n      swap1\n      pop\n      jump\t// out\n        /* \"#utility.yul\":3064:3173   */\n    tag_67:\n        /* \"#utility.yul\":3145:3166   */\n      tag_117\n        /* \"#utility.yul\":3160:3165   */\n      dup2\n        /* \"#utility.yul\":3145:3166   */\n      tag_66\n      jump\t// in\n    tag_117:\n        /* \"#utility.yul\":3140:3143   */\n      dup3\n        /* \"#utility.yul\":3133:3167   */\n      mstore\n        /* \"#utility.yul\":3064:3173   */\n      pop\n      pop\n      jump\t// out\n        /* \"#utility.yul\":3179:3831   */\n    tag_23:\n        /* \"#utility.yul\":3378:3382   */\n      0x00\n        /* \"#utility.yul\":3416:3419   */\n      0xa0\n        /* \"#utility.yul\":3405:3414   */\n      dup3\n        /* \"#utility.yul\":3401:3420   */\n      add\n        /* \"#utility.yul\":3393:3420   */\n      swap1\n      pop\n        /* \"#utility.yul\":3430:3501   */\n      tag_119\n        /* \"#utility.yul\":3498:3499   */\n      0x00\n        /* \"#utility.yul\":3487:3496   */\n      dup4\n        /* \"#utility.yul\":3483:3500   */\n      add\n        /* \"#utility.yul\":3474:3480   */\n      dup9\n        /* \"#utility.yul\":3430:3501   */\n      tag_65\n      jump\t// in\n    tag_119:\n        /* \"#utility.yul\":3511:3583   */\n      tag_120\n        /* \"#utility.yul\":3579:3581   */\n      0x20\n        /* \"#utility.yul\":3568:3577   */\n      dup4\n        /* \"#utility.yul\":3564:3582   */\n      add\n        /* \"#utility.yul\":3555:3561   */\n      dup8\n        /* \"#utility.yul\":3511:3583   */\n      tag_64\n      jump\t// in\n    tag_120:\n        /* \"#utility.yul\":3593:3665   */\n      tag_121\n        /* \"#utility.yul\":3661:3663   */\n      0x40\n        /* \"#utility.yul\":3650:3659   */\n      dup4\n        /* \"#utility.yul\":3646:3664   */\n      add\n        /* \"#utility.yul\":3637:3643   */\n      dup7\n        /* \"#utility.yul\":3593:3665   */\n      tag_64\n      jump\t// in\n    tag_121:\n        /* \"#utility.yul\":3675:3747   */\n      tag_122\n        /* \"#utility.yul\":3743:3745   */\n      0x60\n        /* \"#utility.yul\":3732:3741   */\n      dup4\n        /* \"#utility.yul\":3728:3746   */\n      add\n        /* \"#utility.yul\":3719:3725   */\n      dup6\n        /* \"#utility.yul\":3675:3747   */\n      tag_64\n      jump\t// in\n    tag_122:\n        /* \"#utility.yul\":3757:3824   */\n      tag_123\n        /* \"#utility.yul\":3819:3822   */\n      0x80\n        /* \"#utility.yul\":3808:3817   */\n      dup4\n        /* \"#utility.yul\":3804:3823   */\n      add\n        /* \"#utility.yul\":3795:3801   */\n      dup5\n        /* \"#utility.yul\":3757:3824   */\n      tag_67\n      jump\t// in\n    tag_123:\n        /* \"#utility.yul\":3179:3831   */\n      swap7\n      swap6\n      pop\n      pop\n      pop\n      pop\n      pop\n      pop\n      jump\t// out\n        /* \"#utility.yul\":3837:4456   */\n    tag_30:\n        /* \"#utility.yul\":3914:3920   */\n      0x00\n        /* \"#utility.yul\":3922:3928   */\n      dup1\n        /* \"#utility.yul\":3930:3936   */\n      0x00\n        /* \"#utility.yul\":3979:3981   */\n      0x60\n        /* \"#utility.yul\":3967:3976   */\n      dup5\n        /* \"#utility.yul\":3958:3965   */\n      dup7\n        /* \"#utility.yul\":3954:3977   */\n      sub\n        /* \"#utility.yul\":3950:3982   */\n      slt\n        /* \"#utility.yul\":3947:4066   */\n      iszero\n      tag_125\n      jumpi\n        /* \"#utility.yul\":3985:4064   */\n      tag_126\n      tag_55\n      jump\t// in\n    tag_126:\n        /* \"#utility.yul\":3947:4066   */\n    tag_125:\n        /* \"#utility.yul\":4105:4106   */\n      0x00\n        /* \"#utility.yul\":4130:4183   */\n      tag_127\n        /* \"#utility.yul\":4175:4182   */\n      dup7\n        /* \"#utility.yul\":4166:4172   */\n      dup3\n        /* \"#utility.yul\":4155:4164   */\n      dup8\n        /* \"#utility.yul\":4151:4173   */\n      add\n        /* \"#utility.yul\":4130:4183   */\n      tag_60\n      jump\t// in\n    tag_127:\n        /* \"#utility.yul\":4120:4183   */\n      swap4\n      pop\n        /* \"#utility.yul\":4076:4193   */\n      pop\n        /* \"#utility.yul\":4232:4234   */\n      0x20\n        /* \"#utility.yul\":4258:4311   */\n      tag_128\n        /* \"#utility.yul\":4303:4310   */\n      dup7\n        /* \"#utility.yul\":4294:4300   */\n      dup3\n        /* \"#utility.yul\":4283:4292   */\n      dup8\n        /* \"#utility.yul\":4279:4301   */\n      add\n        /* \"#utility.yul\":4258:4311   */\n      tag_63\n      jump\t// in\n    tag_128:\n        /* \"#utility.yul\":4248:4311   */\n      swap3\n      pop\n        /* \"#utility.yul\":4203:4321   */\n      pop\n        /* \"#utility.yul\":4360:4362   */\n      0x40\n        /* \"#utility.yul\":4386:4439   */\n      tag_129\n        /* \"#utility.yul\":4431:4438   */\n      dup7\n        /* \"#utility.yul\":4422:4428   */\n      dup3\n        /* \"#utility.yul\":4411:4420   */\n      dup8\n        /* \"#utility.yul\":4407:4429   */\n      add\n        /* \"#utility.yul\":4386:4439   */\n      tag_63\n      jump\t// in\n    tag_129:\n        /* \"#utility.yul\":4376:4439   */\n      swap2\n      pop\n        /* \"#utility.yul\":4331:4449   */\n      pop\n        /* \"#utility.yul\":3837:4456   */\n      swap3\n      pop\n      swap3\n      pop\n      swap3\n      jump\t// out\n        /* \"#utility.yul\":4462:4631   */\n    tag_68:\n        /* \"#utility.yul\":4546:4557   */\n      0x00\n        /* \"#utility.yul\":4580:4586   */\n      dup3\n        /* \"#utility.yul\":4575:4578   */\n      dup3\n        /* \"#utility.yul\":4568:4587   */\n      mstore\n        /* \"#utility.yul\":4620:4624   */\n      0x20\n        /* \"#utility.yul\":4615:4618   */\n      dup3\n        /* \"#utility.yul\":4611:4625   */\n      add\n        /* \"#utility.yul\":4596:4625   */\n      swap1\n      pop\n        /* \"#utility.yul\":4462:4631   */\n      swap3\n      swap2\n      pop\n      pop\n      jump\t// out\n        /* \"#utility.yul\":4637:4860   */\n    tag_69:\n        /* \"#utility.yul\":4777:4811   */\n      0x436f6e74726570617274696520696e616374697665206f7520696e6578697374\n        /* \"#utility.yul\":4773:4774   */\n      0x00\n        /* \"#utility.yul\":4765:4771   */\n      dup3\n        /* \"#utility.yul\":4761:4775   */\n      add\n        /* \"#utility.yul\":4754:4812   */\n      mstore\n        /* \"#utility.yul\":4846:4852   */\n      0x616e746500000000000000000000000000000000000000000000000000000000\n        /* \"#utility.yul\":4841:4843   */\n      0x20\n        /* \"#utility.yul\":4833:4839   */\n      dup3\n        /* \"#utility.yul\":4829:4844   */\n      add\n        /* \"#utility.yul\":4822:4853   */\n      mstore\n        /* \"#utility.yul\":4637:4860   */\n      pop\n      jump\t// out\n        /* \"#utility.yul\":4866:5232   */\n    tag_70:\n        /* \"#utility.yul\":5008:5011   */\n      0x00\n        /* \"#utility.yul\":5029:5096   */\n      tag_133\n        /* \"#utility.yul\":5093:5095   */\n      0x24\n        /* \"#utility.yul\":5088:5091   */\n      dup4\n        /* \"#utility.yul\":5029:5096   */\n      tag_68\n      jump\t// in\n    tag_133:\n        /* \"#utility.yul\":5022:5096   */\n      swap2\n      pop\n        /* \"#utility.yul\":5105:5198   */\n      tag_134\n        /* \"#utility.yul\":5194:5197   */\n      dup3\n        /* \"#utility.yul\":5105:5198   */\n      tag_69\n      jump\t// in\n    tag_134:\n        /* \"#utility.yul\":5223:5225   */\n      0x40\n        /* \"#utility.yul\":5218:5221   */\n      dup3\n        /* \"#utility.yul\":5214:5226   */\n      add\n        /* \"#utility.yul\":5207:5226   */\n      swap1\n      pop\n        /* \"#utility.yul\":4866:5232   */\n      swap2\n      swap1\n      pop\n      jump\t// out\n        /* \"#utility.yul\":5238:5657   */\n    tag_35:\n        /* \"#utility.yul\":5404:5408   */\n      0x00\n        /* \"#utility.yul\":5442:5444   */\n      0x20\n        /* \"#utility.yul\":5431:5440   */\n      dup3\n        /* \"#utility.yul\":5427:5445   */\n      add\n        /* \"#utility.yul\":5419:5445   */\n      swap1\n      pop\n        /* \"#utility.yul\":5491:5500   */\n      dup2\n        /* \"#utility.yul\":5485:5489   */\n      dup2\n        /* \"#utility.yul\":5481:5501   */\n      sub\n        /* \"#utility.yul\":5477:5478   */\n      0x00\n        /* \"#utility.yul\":5466:5475   */\n      dup4\n        /* \"#utility.yul\":5462:5479   */\n      add\n        /* \"#utility.yul\":5455:5502   */\n      mstore\n        /* \"#utility.yul\":5519:5650   */\n      tag_136\n        /* \"#utility.yul\":5645:5649   */\n      dup2\n        /* \"#utility.yul\":5519:5650   */\n      tag_70\n      jump\t// in\n    tag_136:\n        /* \"#utility.yul\":5511:5650   */\n      swap1\n      pop\n        /* \"#utility.yul\":5238:5657   */\n      swap2\n      swap1\n      pop\n      jump\t// out\n        /* \"#utility.yul\":5663:5843   */\n    tag_71:\n        /* \"#utility.yul\":5711:5788   */\n      0x4e487b7100000000000000000000000000000000000000000000000000000000\n        /* \"#utility.yul\":5708:5709   */\n      0x00\n        /* \"#utility.yul\":5701:5789   */\n      mstore\n        /* \"#utility.yul\":5808:5812   */\n      0x11\n        /* \"#utility.yul\":5805:5806   */\n      0x04\n        /* \"#utility.yul\":5798:5813   */\n      mstore\n        /* \"#utility.yul\":5832:5836   */\n      0x24\n        /* \"#utility.yul\":5829:5830   */\n      0x00\n        /* \"#utility.yul\":5822:5837   */\n      revert\n        /* \"#utility.yul\":5849:6040   */\n    tag_37:\n        /* \"#utility.yul\":5889:5892   */\n      0x00\n        /* \"#utility.yul\":5908:5928   */\n      tag_139\n        /* \"#utility.yul\":5926:5927   */\n      dup3\n        /* \"#utility.yul\":5908:5928   */\n      tag_61\n      jump\t// in\n    tag_139:\n        /* \"#utility.yul\":5903:5928   */\n      swap2\n      pop\n        /* \"#utility.yul\":5942:5962   */\n      tag_140\n        /* \"#utility.yul\":5960:5961   */\n      dup4\n        /* \"#utility.yul\":5942:5962   */\n      tag_61\n      jump\t// in\n    tag_140:\n        /* \"#utility.yul\":5937:5962   */\n      swap3\n      pop\n        /* \"#utility.yul\":5985:5986   */\n      dup3\n        /* \"#utility.yul\":5982:5983   */\n      dup3\n        /* \"#utility.yul\":5978:5987   */\n      add\n        /* \"#utility.yul\":5971:5987   */\n      swap1\n      pop\n        /* \"#utility.yul\":6006:6009   */\n      dup1\n        /* \"#utility.yul\":6003:6004   */\n      dup3\n        /* \"#utility.yul\":6000:6010   */\n      gt\n        /* \"#utility.yul\":5997:6033   */\n      iszero\n      tag_141\n      jumpi\n        /* \"#utility.yul\":6013:6031   */\n      tag_142\n      tag_71\n      jump\t// in\n    tag_142:\n        /* \"#utility.yul\":5997:6033   */\n    tag_141:\n        /* \"#utility.yul\":5849:6040   */\n      swap3\n      swap2\n      pop\n      pop\n      jump\t// out\n        /* \"#utility.yul\":6046:6220   */\n    tag_72:\n        /* \"#utility.yul\":6186:6212   */\n      0x436f6e74726570617274696520696e6578697374616e74650000000000000000\n        /* \"#utility.yul\":6182:6183   */\n      0x00\n        /* \"#utility.yul\":6174:6180   */\n      dup3\n        /* \"#utility.yul\":6170:6184   */\n      add\n        /* \"#utility.yul\":6163:6213   */\n      mstore\n        /* \"#utility.yul\":6046:6220   */\n      pop\n      jump\t// out\n        /* \"#utility.yul\":6226:6592   */\n    tag_73:\n        /* \"#utility.yul\":6368:6371   */\n      0x00\n        /* \"#utility.yul\":6389:6456   */\n      tag_145\n        /* \"#utility.yul\":6453:6455   */\n      0x18\n        /* \"#utility.yul\":6448:6451   */\n      dup4\n        /* \"#utility.yul\":6389:6456   */\n      tag_68\n      jump\t// in\n    tag_145:\n        /* \"#utility.yul\":6382:6456   */\n      swap2\n      pop\n        /* \"#utility.yul\":6465:6558   */\n      tag_146\n        /* \"#utility.yul\":6554:6557   */\n      dup3\n        /* \"#utility.yul\":6465:6558   */\n      tag_72\n      jump\t// in\n    tag_146:\n        /* \"#utility.yul\":6583:6585   */\n      0x20\n        /* \"#utility.yul\":6578:6581   */\n      dup3\n        /* \"#utility.yul\":6574:6586   */\n      add\n        /* \"#utility.yul\":6567:6586   */\n      swap1\n      pop\n        /* \"#utility.yul\":6226:6592   */\n      swap2\n      swap1\n      pop\n      jump\t// out\n        /* \"#utility.yul\":6598:7017   */\n    tag_44:\n        /* \"#utility.yul\":6764:6768   */\n      0x00\n        /* \"#utility.yul\":6802:6804   */\n      0x20\n        /* \"#utility.yul\":6791:6800   */\n      dup3\n        /* \"#utility.yul\":6787:6805   */\n      add\n        /* \"#utility.yul\":6779:6805   */\n      swap1\n      pop\n        /* \"#utility.yul\":6851:6860   */\n      dup2\n        /* \"#utility.yul\":6845:6849   */\n      dup2\n        /* \"#utility.yul\":6841:6861   */\n      sub\n        /* \"#utility.yul\":6837:6838   */\n      0x00\n        /* \"#utility.yul\":6826:6835   */\n      dup4\n        /* \"#utility.yul\":6822:6839   */\n      add\n        /* \"#utility.yul\":6815:6862   */\n      mstore\n        /* \"#utility.yul\":6879:7010   */\n      tag_148\n        /* \"#utility.yul\":7005:7009   */\n      dup2\n        /* \"#utility.yul\":6879:7010   */\n      tag_73\n      jump\t// in\n    tag_148:\n        /* \"#utility.yul\":6871:7010   */\n      swap1\n      pop\n        /* \"#utility.yul\":6598:7017   */\n      swap2\n      swap1\n      pop\n      jump\t// out\n        /* \"#utility.yul\":7023:7433   */\n    tag_46:\n        /* \"#utility.yul\":7063:7070   */\n      0x00\n        /* \"#utility.yul\":7086:7106   */\n      tag_150\n        /* \"#utility.yul\":7104:7105   */\n      dup3\n        /* \"#utility.yul\":7086:7106   */\n      tag_61\n      jump\t// in\n    tag_150:\n        /* \"#utility.yul\":7081:7106   */\n      swap2\n      pop\n        /* \"#utility.yul\":7120:7140   */\n      tag_151\n        /* \"#utility.yul\":7138:7139   */\n      dup4\n        /* \"#utility.yul\":7120:7140   */\n      tag_61\n      jump\t// in\n    tag_151:\n        /* \"#utility.yul\":7115:7140   */\n      swap3\n      pop\n        /* \"#utility.yul\":7175:7176   */\n      dup3\n        /* \"#utility.yul\":7172:7173   */\n      dup3\n        /* \"#utility.yul\":7168:7177   */\n      mul\n        /* \"#utility.yul\":7197:7227   */\n      tag_152\n        /* \"#utility.yul\":7215:7226   */\n      dup2\n        /* \"#utility.yul\":7197:7227   */\n      tag_61\n      jump\t// in\n    tag_152:\n        /* \"#utility.yul\":7186:7227   */\n      swap2\n      pop\n        /* \"#utility.yul\":7376:7377   */\n      dup3\n        /* \"#utility.yul\":7367:7374   */\n      dup3\n        /* \"#utility.yul\":7363:7378   */\n      div\n        /* \"#utility.yul\":7360:7361   */\n      dup5\n        /* \"#utility.yul\":7357:7379   */\n      eq\n        /* \"#utility.yul\":7337:7338   */\n      dup4\n        /* \"#utility.yul\":7330:7339   */\n      iszero\n        /* \"#utility.yul\":7310:7393   */\n      or\n        /* \"#utility.yul\":7287:7426   */\n      tag_153\n      jumpi\n        /* \"#utility.yul\":7406:7424   */\n      tag_154\n      tag_71\n      jump\t// in\n    tag_154:\n        /* \"#utility.yul\":7287:7426   */\n    tag_153:\n        /* \"#utility.yul\":7071:7433   */\n      pop\n        /* \"#utility.yul\":7023:7433   */\n      swap3\n      swap2\n      pop\n      pop\n      jump\t// out\n        /* \"#utility.yul\":7439:7619   */\n    tag_74:\n        /* \"#utility.yul\":7487:7564   */\n      0x4e487b7100000000000000000000000000000000000000000000000000000000\n        /* \"#utility.yul\":7484:7485   */\n      0x00\n        /* \"#utility.yul\":7477:7565   */\n      mstore\n        /* \"#utility.yul\":7584:7588   */\n      0x12\n        /* \"#utility.yul\":7581:7582   */\n      0x04\n        /* \"#utility.yul\":7574:7589   */\n      mstore\n        /* \"#utility.yul\":7608:7612   */\n      0x24\n        /* \"#utility.yul\":7605:7606   */\n      0x00\n        /* \"#utility.yul\":7598:7613   */\n      revert\n        /* \"#utility.yul\":7625:7810   */\n    tag_48:\n        /* \"#utility.yul\":7665:7666   */\n      0x00\n        /* \"#utility.yul\":7682:7702   */\n      tag_157\n        /* \"#utility.yul\":7700:7701   */\n      dup3\n        /* \"#utility.yul\":7682:7702   */\n      tag_61\n      jump\t// in\n    tag_157:\n        /* \"#utility.yul\":7677:7702   */\n      swap2\n      pop\n        /* \"#utility.yul\":7716:7736   */\n      tag_158\n        /* \"#utility.yul\":7734:7735   */\n      dup4\n        /* \"#utility.yul\":7716:7736   */\n      tag_61\n      jump\t// in\n    tag_158:\n        /* \"#utility.yul\":7711:7736   */\n      swap3\n      pop\n        /* \"#utility.yul\":7755:7756   */\n      dup3\n        /* \"#utility.yul\":7745:7780   */\n      tag_159\n      jumpi\n        /* \"#utility.yul\":7760:7778   */\n      tag_160\n      tag_74\n      jump\t// in\n    tag_160:\n        /* \"#utility.yul\":7745:7780   */\n    tag_159:\n        /* \"#utility.yul\":7802:7803   */\n      dup3\n        /* \"#utility.yul\":7799:7800   */\n      dup3\n        /* \"#utility.yul\":7795:7804   */\n      div\n        /* \"#utility.yul\":7790:7804   */\n      swap1\n      pop\n        /* \"#utility.yul\":7625:7810   */\n      swap3\n      swap2\n      pop\n      pop\n      jump\t// out\n        /* \"#utility.yul\":7816:7990   */\n    tag_75:\n        /* \"#utility.yul\":7956:7982   */\n      0x436f6e747265706172746965206578697374652064656a610000000000000000\n        /* \"#utility.yul\":7952:7953   */\n      0x00\n        /* \"#utility.yul\":7944:7950   */\n      dup3\n        /* \"#utility.yul\":7940:7954   */\n      add\n        /* \"#utility.yul\":7933:7983   */\n      mstore\n        /* \"#utility.yul\":7816:7990   */\n      pop\n      jump\t// out\n        /* \"#utility.yul\":7996:8362   */\n    tag_76:\n        /* \"#utility.yul\":8138:8141   */\n      0x00\n        /* \"#utility.yul\":8159:8226   */\n      tag_163\n        /* \"#utility.yul\":8223:8225   */\n      0x18\n        /* \"#utility.yul\":8218:8221   */\n      dup4\n        /* \"#utility.yul\":8159:8226   */\n      tag_68\n      jump\t// in\n    tag_163:\n        /* \"#utility.yul\":8152:8226   */\n      swap2\n      pop\n        /* \"#utility.yul\":8235:8328   */\n      tag_164\n        /* \"#utility.yul\":8324:8327   */\n      dup3\n        /* \"#utility.yul\":8235:8328   */\n      tag_75\n      jump\t// in\n    tag_164:\n        /* \"#utility.yul\":8353:8355   */\n      0x20\n        /* \"#utility.yul\":8348:8351   */\n      dup3\n        /* \"#utility.yul\":8344:8356   */\n      add\n        /* \"#utility.yul\":8337:8356   */\n      swap1\n      pop\n        /* \"#utility.yul\":7996:8362   */\n      swap2\n      swap1\n      pop\n      jump\t// out\n        /* \"#utility.yul\":8368:8787   */\n    tag_52:\n        /* \"#utility.yul\":8534:8538   */\n      0x00\n        /* \"#utility.yul\":8572:8574   */\n      0x20\n        /* \"#utility.yul\":8561:8570   */\n      dup3\n        /* \"#utility.yul\":8557:8575   */\n      add\n        /* \"#utility.yul\":8549:8575   */\n      swap1\n      pop\n        /* \"#utility.yul\":8621:8630   */\n      dup2\n        /* \"#utility.yul\":8615:8619   */\n      dup2\n        /* \"#utility.yul\":8611:8631   */\n      sub\n        /* \"#utility.yul\":8607:8608   */\n      0x00\n        /* \"#utility.yul\":8596:8605   */\n      dup4\n        /* \"#utility.yul\":8592:8609   */\n      add\n        /* \"#utility.yul\":8585:8632   */\n      mstore\n        /* \"#utility.yul\":8649:8780   */\n      tag_166\n        /* \"#utility.yul\":8775:8779   */\n      dup2\n        /* \"#utility.yul\":8649:8780   */\n      tag_76\n      jump\t// in\n    tag_166:\n        /* \"#utility.yul\":8641:8780   */\n      swap1\n      pop\n        /* \"#utility.yul\":8368:8787   */\n      swap2\n      swap1\n      pop\n      jump\t// out\n\n    auxdata: 0xa2646970667358221220ead1bfad08b21da43262e179364aa2b055336e7c00b4f07eb23c6ad2c7d0bb9864736f6c634300081a0033\n}\n",
				"bytecode": {
					"linkReferences": {},
					"object": "6080604052348015600e575f80fd5b50610c7e8061001c5f395ff3fe608060405234801561000f575f80fd5b5060043610610055575f3560e01c80631922701e146100595780633edf688d14610075578063760b1eee146100a55780638e068eb0146100d9578063b4239e9b14610109575b5f80fd5b610073600480360381019061006e9190610843565b610125565b005b61008f600480360381019061008a9190610881565b6103aa565b60405161009c91906108ce565b60405180910390f35b6100bf60048036038101906100ba91906108e7565b6103ca565b6040516100d095949392919061093b565b60405180910390f35b6100f360048036038101906100ee91906108e7565b610426565b60405161010091906108ce565b60405180910390f35b610123600480360381019061011e919061098c565b610594565b005b5f808373ffffffffffffffffffffffffffffffffffffffff1673ffffffffffffffffffffffffffffffffffffffff1681526020019081526020015f206004015f9054906101000a900460ff166101b0576040517f08c379a00000000000000000000000000000000000000000000000000000000081526004016101a790610a5c565b60405180910390fd5b805f808473ffffffffffffffffffffffffffffffffffffffff1673ffffffffffffffffffffffffffffffffffffffff1681526020019081526020015f206003015f8282546101fe9190610aa7565b925050819055505f808373ffffffffffffffffffffffffffffffffffffffff1673ffffffffffffffffffffffffffffffffffffffff1681526020019081526020015f20600201545f808473ffffffffffffffffffffffffffffffffffffffff1673ffffffffffffffffffffffffffffffffffffffff1681526020019081526020015f20600301541115610319578173ffffffffffffffffffffffffffffffffffffffff167f74b737e83b985a0afa446389d70cccab99d200a0a63101114130a2a2dfbba9125f808573ffffffffffffffffffffffffffffffffffffffff1673ffffffffffffffffffffffffffffffffffffffff1681526020019081526020015f206003015460405161031091906108ce565b60405180910390a25b8173ffffffffffffffffffffffffffffffffffffffff167fa6b582f9fa77f5eb299250871d3b51c8ff3655dd554da3f9abb294b3e92f8e1f5f808573ffffffffffffffffffffffffffffffffffffffff1673ffffffffffffffffffffffffffffffffffffffff1681526020019081526020015f206003015460405161039e91906108ce565b60405180910390a25050565b6001602052815f5260405f20602052805f5260405f205f91509150505481565b5f602052805f5260405f205f91509050805f015f9054906101000a900473ffffffffffffffffffffffffffffffffffffffff1690806001015490806002015490806003015490806004015f9054906101000a900460ff16905085565b5f8073ffffffffffffffffffffffffffffffffffffffff165f808473ffffffffffffffffffffffffffffffffffffffff1673ffffffffffffffffffffffffffffffffffffffff1681526020019081526020015f205f015f9054906101000a900473ffffffffffffffffffffffffffffffffffffffff1673ffffffffffffffffffffffffffffffffffffffff16036104f2576040517f08c379a00000000000000000000000000000000000000000000000000000000081526004016104e990610b24565b60405180910390fd5b5f805f8473ffffffffffffffffffffffffffffffffffffffff1673ffffffffffffffffffffffffffffffffffffffff1681526020019081526020015f206002015460645f808673ffffffffffffffffffffffffffffffffffffffff1673ffffffffffffffffffffffffffffffffffffffff1681526020019081526020015f206003015461057f9190610b42565b6105899190610bb0565b905080915050919050565b5f73ffffffffffffffffffffffffffffffffffffffff165f808573ffffffffffffffffffffffffffffffffffffffff1673ffffffffffffffffffffffffffffffffffffffff1681526020019081526020015f205f015f9054906101000a900473ffffffffffffffffffffffffffffffffffffffff1673ffffffffffffffffffffffffffffffffffffffff161461065f576040517f08c379a000000000000000000000000000000000000000000000000000000000815260040161065690610c2a565b60405180910390fd5b6040518060a001604052808473ffffffffffffffffffffffffffffffffffffffff1681526020018381526020018281526020015f8152602001600115158152505f808573ffffffffffffffffffffffffffffffffffffffff1673ffffffffffffffffffffffffffffffffffffffff1681526020019081526020015f205f820151815f015f6101000a81548173ffffffffffffffffffffffffffffffffffffffff021916908373ffffffffffffffffffffffffffffffffffffffff1602179055506020820151816001015560408201518160020155606082015181600301556080820151816004015f6101000a81548160ff0219169083151502179055509050508273ffffffffffffffffffffffffffffffffffffffff167f747a12c5b34abe212a3a26b67b9a8edf3ceb6bd68207c9f6c11a5161432e1614826040516107a591906108ce565b60405180910390a2505050565b5f80fd5b5f73ffffffffffffffffffffffffffffffffffffffff82169050919050565b5f6107df826107b6565b9050919050565b6107ef816107d5565b81146107f9575f80fd5b50565b5f8135905061080a816107e6565b92915050565b5f819050919050565b61082281610810565b811461082c575f80fd5b50565b5f8135905061083d81610819565b92915050565b5f8060408385031215610859576108586107b2565b5b5f610866858286016107fc565b92505060206108778582860161082f565b9150509250929050565b5f8060408385031215610897576108966107b2565b5b5f6108a4858286016107fc565b92505060206108b5858286016107fc565b9150509250929050565b6108c881610810565b82525050565b5f6020820190506108e15f8301846108bf565b92915050565b5f602082840312156108fc576108fb6107b2565b5b5f610909848285016107fc565b91505092915050565b61091b816107d5565b82525050565b5f8115159050919050565b61093581610921565b82525050565b5f60a08201905061094e5f830188610912565b61095b60208301876108bf565b61096860408301866108bf565b61097560608301856108bf565b610982608083018461092c565b9695505050505050565b5f805f606084860312156109a3576109a26107b2565b5b5f6109b0868287016107fc565b93505060206109c18682870161082f565b92505060406109d28682870161082f565b9150509250925092565b5f82825260208201905092915050565b7f436f6e74726570617274696520696e616374697665206f7520696e65786973745f8201527f616e746500000000000000000000000000000000000000000000000000000000602082015250565b5f610a466024836109dc565b9150610a51826109ec565b604082019050919050565b5f6020820190508181035f830152610a7381610a3a565b9050919050565b7f4e487b71000000000000000000000000000000000000000000000000000000005f52601160045260245ffd5b5f610ab182610810565b9150610abc83610810565b9250828201905080821115610ad457610ad3610a7a565b5b92915050565b7f436f6e74726570617274696520696e6578697374616e746500000000000000005f82015250565b5f610b0e6018836109dc565b9150610b1982610ada565b602082019050919050565b5f6020820190508181035f830152610b3b81610b02565b9050919050565b5f610b4c82610810565b9150610b5783610810565b9250828202610b6581610810565b91508282048414831517610b7c57610b7b610a7a565b5b5092915050565b7f4e487b71000000000000000000000000000000000000000000000000000000005f52601260045260245ffd5b5f610bba82610810565b9150610bc583610810565b925082610bd557610bd4610b83565b5b828204905092915050565b7f436f6e747265706172746965206578697374652064656a6100000000000000005f82015250565b5f610c146018836109dc565b9150610c1f82610be0565b602082019050919050565b5f6020820190508181035f830152610c4181610c08565b905091905056fea2646970667358221220ead1bfad08b21da43262e179364aa2b055336e7c00b4f07eb23c6ad2c7d0bb9864736f6c634300081a0033",
					"opcodes": "PUSH1 0x80 PUSH1 0x40 MSTORE CALLVALUE DUP1 ISZERO PUSH1 0xE JUMPI PUSH0 DUP1 REVERT JUMPDEST POP PUSH2 0xC7E DUP1 PUSH2 0x1C PUSH0 CODECOPY PUSH0 RETURN INVALID PUSH1 0x80 PUSH1 0x40 MSTORE CALLVALUE DUP1 ISZERO PUSH2 0xF JUMPI PUSH0 DUP1 REVERT JUMPDEST POP PUSH1 0x4 CALLDATASIZE LT PUSH2 0x55 JUMPI PUSH0 CALLDATALOAD PUSH1 0xE0 SHR DUP1 PUSH4 0x1922701E EQ PUSH2 0x59 JUMPI DUP1 PUSH4 0x3EDF688D EQ PUSH2 0x75 JUMPI DUP1 PUSH4 0x760B1EEE EQ PUSH2 0xA5 JUMPI DUP1 PUSH4 0x8E068EB0 EQ PUSH2 0xD9 JUMPI DUP1 PUSH4 0xB4239E9B EQ PUSH2 0x109 JUMPI JUMPDEST PUSH0 DUP1 REVERT JUMPDEST PUSH2 0x73 PUSH1 0x4 DUP1 CALLDATASIZE SUB DUP2 ADD SWAP1 PUSH2 0x6E SWAP2 SWAP1 PUSH2 0x843 JUMP JUMPDEST PUSH2 0x125 JUMP JUMPDEST STOP JUMPDEST PUSH2 0x8F PUSH1 0x4 DUP1 CALLDATASIZE SUB DUP2 ADD SWAP1 PUSH2 0x8A SWAP2 SWAP1 PUSH2 0x881 JUMP JUMPDEST PUSH2 0x3AA JUMP JUMPDEST PUSH1 0x40 MLOAD PUSH2 0x9C SWAP2 SWAP1 PUSH2 0x8CE JUMP JUMPDEST PUSH1 0x40 MLOAD DUP1 SWAP2 SUB SWAP1 RETURN JUMPDEST PUSH2 0xBF PUSH1 0x4 DUP1 CALLDATASIZE SUB DUP2 ADD SWAP1 PUSH2 0xBA SWAP2 SWAP1 PUSH2 0x8E7 JUMP JUMPDEST PUSH2 0x3CA JUMP JUMPDEST PUSH1 0x40 MLOAD PUSH2 0xD0 SWAP6 SWAP5 SWAP4 SWAP3 SWAP2 SWAP1 PUSH2 0x93B JUMP JUMPDEST PUSH1 0x40 MLOAD DUP1 SWAP2 SUB SWAP1 RETURN JUMPDEST PUSH2 0xF3 PUSH1 0x4 DUP1 CALLDATASIZE SUB DUP2 ADD SWAP1 PUSH2 0xEE SWAP2 SWAP1 PUSH2 0x8E7 JUMP JUMPDEST PUSH2 0x426 JUMP JUMPDEST PUSH1 0x40 MLOAD PUSH2 0x100 SWAP2 SWAP1 PUSH2 0x8CE JUMP JUMPDEST PUSH1 0x40 MLOAD DUP1 SWAP2 SUB SWAP1 RETURN JUMPDEST PUSH2 0x123 PUSH1 0x4 DUP1 CALLDATASIZE SUB DUP2 ADD SWAP1 PUSH2 0x11E SWAP2 SWAP1 PUSH2 0x98C JUMP JUMPDEST PUSH2 0x594 JUMP JUMPDEST STOP JUMPDEST PUSH0 DUP1 DUP4 PUSH20 0xFFFFFFFFFFFFFFFFFFFFFFFFFFFFFFFFFFFFFFFF AND PUSH20 0xFFFFFFFFFFFFFFFFFFFFFFFFFFFFFFFFFFFFFFFF AND DUP2 MSTORE PUSH1 0x20 ADD SWAP1 DUP2 MSTORE PUSH1 0x20 ADD PUSH0 KECCAK256 PUSH1 0x4 ADD PUSH0 SWAP1 SLOAD SWAP1 PUSH2 0x100 EXP SWAP1 DIV PUSH1 0xFF AND PUSH2 0x1B0 JUMPI PUSH1 0x40 MLOAD PUSH32 0x8C379A000000000000000000000000000000000000000000000000000000000 DUP2 MSTORE PUSH1 0x4 ADD PUSH2 0x1A7 SWAP1 PUSH2 0xA5C JUMP JUMPDEST PUSH1 0x40 MLOAD DUP1 SWAP2 SUB SWAP1 REVERT JUMPDEST DUP1 PUSH0 DUP1 DUP5 PUSH20 0xFFFFFFFFFFFFFFFFFFFFFFFFFFFFFFFFFFFFFFFF AND PUSH20 0xFFFFFFFFFFFFFFFFFFFFFFFFFFFFFFFFFFFFFFFF AND DUP2 MSTORE PUSH1 0x20 ADD SWAP1 DUP2 MSTORE PUSH1 0x20 ADD PUSH0 KECCAK256 PUSH1 0x3 ADD PUSH0 DUP3 DUP3 SLOAD PUSH2 0x1FE SWAP2 SWAP1 PUSH2 0xAA7 JUMP JUMPDEST SWAP3 POP POP DUP2 SWAP1 SSTORE POP PUSH0 DUP1 DUP4 PUSH20 0xFFFFFFFFFFFFFFFFFFFFFFFFFFFFFFFFFFFFFFFF AND PUSH20 0xFFFFFFFFFFFFFFFFFFFFFFFFFFFFFFFFFFFFFFFF AND DUP2 MSTORE PUSH1 0x20 ADD SWAP1 DUP2 MSTORE PUSH1 0x20 ADD PUSH0 KECCAK256 PUSH1 0x2 ADD SLOAD PUSH0 DUP1 DUP5 PUSH20 0xFFFFFFFFFFFFFFFFFFFFFFFFFFFFFFFFFFFFFFFF AND PUSH20 0xFFFFFFFFFFFFFFFFFFFFFFFFFFFFFFFFFFFFFFFF AND DUP2 MSTORE PUSH1 0x20 ADD SWAP1 DUP2 MSTORE PUSH1 0x20 ADD PUSH0 KECCAK256 PUSH1 0x3 ADD SLOAD GT ISZERO PUSH2 0x319 JUMPI DUP2 PUSH20 0xFFFFFFFFFFFFFFFFFFFFFFFFFFFFFFFFFFFFFFFF AND PUSH32 0x74B737E83B985A0AFA446389D70CCCAB99D200A0A63101114130A2A2DFBBA912 PUSH0 DUP1 DUP6 PUSH20 0xFFFFFFFFFFFFFFFFFFFFFFFFFFFFFFFFFFFFFFFF AND PUSH20 0xFFFFFFFFFFFFFFFFFFFFFFFFFFFFFFFFFFFFFFFF AND DUP2 MSTORE PUSH1 0x20 ADD SWAP1 DUP2 MSTORE PUSH1 0x20 ADD PUSH0 KECCAK256 PUSH1 0x3 ADD SLOAD PUSH1 0x40 MLOAD PUSH2 0x310 SWAP2 SWAP1 PUSH2 0x8CE JUMP JUMPDEST PUSH1 0x40 MLOAD DUP1 SWAP2 SUB SWAP1 LOG2 JUMPDEST DUP2 PUSH20 0xFFFFFFFFFFFFFFFFFFFFFFFFFFFFFFFFFFFFFFFF AND PUSH32 0xA6B582F9FA77F5EB299250871D3B51C8FF3655DD554DA3F9ABB294B3E92F8E1F PUSH0 DUP1 DUP6 PUSH20 0xFFFFFFFFFFFFFFFFFFFFFFFFFFFFFFFFFFFFFFFF AND PUSH20 0xFFFFFFFFFFFFFFFFFFFFFFFFFFFFFFFFFFFFFFFF AND DUP2 MSTORE PUSH1 0x20 ADD SWAP1 DUP2 MSTORE PUSH1 0x20 ADD PUSH0 KECCAK256 PUSH1 0x3 ADD SLOAD PUSH1 0x40 MLOAD PUSH2 0x39E SWAP2 SWAP1 PUSH2 0x8CE JUMP JUMPDEST PUSH1 0x40 MLOAD DUP1 SWAP2 SUB SWAP1 LOG2 POP POP JUMP JUMPDEST PUSH1 0x1 PUSH1 0x20 MSTORE DUP2 PUSH0 MSTORE PUSH1 0x40 PUSH0 KECCAK256 PUSH1 0x20 MSTORE DUP1 PUSH0 MSTORE PUSH1 0x40 PUSH0 KECCAK256 PUSH0 SWAP2 POP SWAP2 POP POP SLOAD DUP2 JUMP JUMPDEST PUSH0 PUSH1 0x20 MSTORE DUP1 PUSH0 MSTORE PUSH1 0x40 PUSH0 KECCAK256 PUSH0 SWAP2 POP SWAP1 POP DUP1 PUSH0 ADD PUSH0 SWAP1 SLOAD SWAP1 PUSH2 0x100 EXP SWAP1 DIV PUSH20 0xFFFFFFFFFFFFFFFFFFFFFFFFFFFFFFFFFFFFFFFF AND SWAP1 DUP1 PUSH1 0x1 ADD SLOAD SWAP1 DUP1 PUSH1 0x2 ADD SLOAD SWAP1 DUP1 PUSH1 0x3 ADD SLOAD SWAP1 DUP1 PUSH1 0x4 ADD PUSH0 SWAP1 SLOAD SWAP1 PUSH2 0x100 EXP SWAP1 DIV PUSH1 0xFF AND SWAP1 POP DUP6 JUMP JUMPDEST PUSH0 DUP1 PUSH20 0xFFFFFFFFFFFFFFFFFFFFFFFFFFFFFFFFFFFFFFFF AND PUSH0 DUP1 DUP5 PUSH20 0xFFFFFFFFFFFFFFFFFFFFFFFFFFFFFFFFFFFFFFFF AND PUSH20 0xFFFFFFFFFFFFFFFFFFFFFFFFFFFFFFFFFFFFFFFF AND DUP2 MSTORE PUSH1 0x20 ADD SWAP1 DUP2 MSTORE PUSH1 0x20 ADD PUSH0 KECCAK256 PUSH0 ADD PUSH0 SWAP1 SLOAD SWAP1 PUSH2 0x100 EXP SWAP1 DIV PUSH20 0xFFFFFFFFFFFFFFFFFFFFFFFFFFFFFFFFFFFFFFFF AND PUSH20 0xFFFFFFFFFFFFFFFFFFFFFFFFFFFFFFFFFFFFFFFF AND SUB PUSH2 0x4F2 JUMPI PUSH1 0x40 MLOAD PUSH32 0x8C379A000000000000000000000000000000000000000000000000000000000 DUP2 MSTORE PUSH1 0x4 ADD PUSH2 0x4E9 SWAP1 PUSH2 0xB24 JUMP JUMPDEST PUSH1 0x40 MLOAD DUP1 SWAP2 SUB SWAP1 REVERT JUMPDEST PUSH0 DUP1 PUSH0 DUP5 PUSH20 0xFFFFFFFFFFFFFFFFFFFFFFFFFFFFFFFFFFFFFFFF AND PUSH20 0xFFFFFFFFFFFFFFFFFFFFFFFFFFFFFFFFFFFFFFFF AND DUP2 MSTORE PUSH1 0x20 ADD SWAP1 DUP2 MSTORE PUSH1 0x20 ADD PUSH0 KECCAK256 PUSH1 0x2 ADD SLOAD PUSH1 0x64 PUSH0 DUP1 DUP7 PUSH20 0xFFFFFFFFFFFFFFFFFFFFFFFFFFFFFFFFFFFFFFFF AND PUSH20 0xFFFFFFFFFFFFFFFFFFFFFFFFFFFFFFFFFFFFFFFF AND DUP2 MSTORE PUSH1 0x20 ADD SWAP1 DUP2 MSTORE PUSH1 0x20 ADD PUSH0 KECCAK256 PUSH1 0x3 ADD SLOAD PUSH2 0x57F SWAP2 SWAP1 PUSH2 0xB42 JUMP JUMPDEST PUSH2 0x589 SWAP2 SWAP1 PUSH2 0xBB0 JUMP JUMPDEST SWAP1 POP DUP1 SWAP2 POP POP SWAP2 SWAP1 POP JUMP JUMPDEST PUSH0 PUSH20 0xFFFFFFFFFFFFFFFFFFFFFFFFFFFFFFFFFFFFFFFF AND PUSH0 DUP1 DUP6 PUSH20 0xFFFFFFFFFFFFFFFFFFFFFFFFFFFFFFFFFFFFFFFF AND PUSH20 0xFFFFFFFFFFFFFFFFFFFFFFFFFFFFFFFFFFFFFFFF AND DUP2 MSTORE PUSH1 0x20 ADD SWAP1 DUP2 MSTORE PUSH1 0x20 ADD PUSH0 KECCAK256 PUSH0 ADD PUSH0 SWAP1 SLOAD SWAP1 PUSH2 0x100 EXP SWAP1 DIV PUSH20 0xFFFFFFFFFFFFFFFFFFFFFFFFFFFFFFFFFFFFFFFF AND PUSH20 0xFFFFFFFFFFFFFFFFFFFFFFFFFFFFFFFFFFFFFFFF AND EQ PUSH2 0x65F JUMPI PUSH1 0x40 MLOAD PUSH32 0x8C379A000000000000000000000000000000000000000000000000000000000 DUP2 MSTORE PUSH1 0x4 ADD PUSH2 0x656 SWAP1 PUSH2 0xC2A JUMP JUMPDEST PUSH1 0x40 MLOAD DUP1 SWAP2 SUB SWAP1 REVERT JUMPDEST PUSH1 0x40 MLOAD DUP1 PUSH1 0xA0 ADD PUSH1 0x40 MSTORE DUP1 DUP5 PUSH20 0xFFFFFFFFFFFFFFFFFFFFFFFFFFFFFFFFFFFFFFFF AND DUP2 MSTORE PUSH1 0x20 ADD DUP4 DUP2 MSTORE PUSH1 0x20 ADD DUP3 DUP2 MSTORE PUSH1 0x20 ADD PUSH0 DUP2 MSTORE PUSH1 0x20 ADD PUSH1 0x1 ISZERO ISZERO DUP2 MSTORE POP PUSH0 DUP1 DUP6 PUSH20 0xFFFFFFFFFFFFFFFFFFFFFFFFFFFFFFFFFFFFFFFF AND PUSH20 0xFFFFFFFFFFFFFFFFFFFFFFFFFFFFFFFFFFFFFFFF AND DUP2 MSTORE PUSH1 0x20 ADD SWAP1 DUP2 MSTORE PUSH1 0x20 ADD PUSH0 KECCAK256 PUSH0 DUP3 ADD MLOAD DUP2 PUSH0 ADD PUSH0 PUSH2 0x100 EXP DUP2 SLOAD DUP2 PUSH20 0xFFFFFFFFFFFFFFFFFFFFFFFFFFFFFFFFFFFFFFFF MUL NOT AND SWAP1 DUP4 PUSH20 0xFFFFFFFFFFFFFFFFFFFFFFFFFFFFFFFFFFFFFFFF AND MUL OR SWAP1 SSTORE POP PUSH1 0x20 DUP3 ADD MLOAD DUP2 PUSH1 0x1 ADD SSTORE PUSH1 0x40 DUP3 ADD MLOAD DUP2 PUSH1 0x2 ADD SSTORE PUSH1 0x60 DUP3 ADD MLOAD DUP2 PUSH1 0x3 ADD SSTORE PUSH1 0x80 DUP3 ADD MLOAD DUP2 PUSH1 0x4 ADD PUSH0 PUSH2 0x100 EXP DUP2 SLOAD DUP2 PUSH1 0xFF MUL NOT AND SWAP1 DUP4 ISZERO ISZERO MUL OR SWAP1 SSTORE POP SWAP1 POP POP DUP3 PUSH20 0xFFFFFFFFFFFFFFFFFFFFFFFFFFFFFFFFFFFFFFFF AND PUSH32 0x747A12C5B34ABE212A3A26B67B9A8EDF3CEB6BD68207C9F6C11A5161432E1614 DUP3 PUSH1 0x40 MLOAD PUSH2 0x7A5 SWAP2 SWAP1 PUSH2 0x8CE JUMP JUMPDEST PUSH1 0x40 MLOAD DUP1 SWAP2 SUB SWAP1 LOG2 POP POP POP JUMP JUMPDEST PUSH0 DUP1 REVERT JUMPDEST PUSH0 PUSH20 0xFFFFFFFFFFFFFFFFFFFFFFFFFFFFFFFFFFFFFFFF DUP3 AND SWAP1 POP SWAP2 SWAP1 POP JUMP JUMPDEST PUSH0 PUSH2 0x7DF DUP3 PUSH2 0x7B6 JUMP JUMPDEST SWAP1 POP SWAP2 SWAP1 POP JUMP JUMPDEST PUSH2 0x7EF DUP2 PUSH2 0x7D5 JUMP JUMPDEST DUP2 EQ PUSH2 0x7F9 JUMPI PUSH0 DUP1 REVERT JUMPDEST POP JUMP JUMPDEST PUSH0 DUP2 CALLDATALOAD SWAP1 POP PUSH2 0x80A DUP2 PUSH2 0x7E6 JUMP JUMPDEST SWAP3 SWAP2 POP POP JUMP JUMPDEST PUSH0 DUP2 SWAP1 POP SWAP2 SWAP1 POP JUMP JUMPDEST PUSH2 0x822 DUP2 PUSH2 0x810 JUMP JUMPDEST DUP2 EQ PUSH2 0x82C JUMPI PUSH0 DUP1 REVERT JUMPDEST POP JUMP JUMPDEST PUSH0 DUP2 CALLDATALOAD SWAP1 POP PUSH2 0x83D DUP2 PUSH2 0x819 JUMP JUMPDEST SWAP3 SWAP2 POP POP JUMP JUMPDEST PUSH0 DUP1 PUSH1 0x40 DUP4 DUP6 SUB SLT ISZERO PUSH2 0x859 JUMPI PUSH2 0x858 PUSH2 0x7B2 JUMP JUMPDEST JUMPDEST PUSH0 PUSH2 0x866 DUP6 DUP3 DUP7 ADD PUSH2 0x7FC JUMP JUMPDEST SWAP3 POP POP PUSH1 0x20 PUSH2 0x877 DUP6 DUP3 DUP7 ADD PUSH2 0x82F JUMP JUMPDEST SWAP2 POP POP SWAP3 POP SWAP3 SWAP1 POP JUMP JUMPDEST PUSH0 DUP1 PUSH1 0x40 DUP4 DUP6 SUB SLT ISZERO PUSH2 0x897 JUMPI PUSH2 0x896 PUSH2 0x7B2 JUMP JUMPDEST JUMPDEST PUSH0 PUSH2 0x8A4 DUP6 DUP3 DUP7 ADD PUSH2 0x7FC JUMP JUMPDEST SWAP3 POP POP PUSH1 0x20 PUSH2 0x8B5 DUP6 DUP3 DUP7 ADD PUSH2 0x7FC JUMP JUMPDEST SWAP2 POP POP SWAP3 POP SWAP3 SWAP1 POP JUMP JUMPDEST PUSH2 0x8C8 DUP2 PUSH2 0x810 JUMP JUMPDEST DUP3 MSTORE POP POP JUMP JUMPDEST PUSH0 PUSH1 0x20 DUP3 ADD SWAP1 POP PUSH2 0x8E1 PUSH0 DUP4 ADD DUP5 PUSH2 0x8BF JUMP JUMPDEST SWAP3 SWAP2 POP POP JUMP JUMPDEST PUSH0 PUSH1 0x20 DUP3 DUP5 SUB SLT ISZERO PUSH2 0x8FC JUMPI PUSH2 0x8FB PUSH2 0x7B2 JUMP JUMPDEST JUMPDEST PUSH0 PUSH2 0x909 DUP5 DUP3 DUP6 ADD PUSH2 0x7FC JUMP JUMPDEST SWAP2 POP POP SWAP3 SWAP2 POP POP JUMP JUMPDEST PUSH2 0x91B DUP2 PUSH2 0x7D5 JUMP JUMPDEST DUP3 MSTORE POP POP JUMP JUMPDEST PUSH0 DUP2 ISZERO ISZERO SWAP1 POP SWAP2 SWAP1 POP JUMP JUMPDEST PUSH2 0x935 DUP2 PUSH2 0x921 JUMP JUMPDEST DUP3 MSTORE POP POP JUMP JUMPDEST PUSH0 PUSH1 0xA0 DUP3 ADD SWAP1 POP PUSH2 0x94E PUSH0 DUP4 ADD DUP9 PUSH2 0x912 JUMP JUMPDEST PUSH2 0x95B PUSH1 0x20 DUP4 ADD DUP8 PUSH2 0x8BF JUMP JUMPDEST PUSH2 0x968 PUSH1 0x40 DUP4 ADD DUP7 PUSH2 0x8BF JUMP JUMPDEST PUSH2 0x975 PUSH1 0x60 DUP4 ADD DUP6 PUSH2 0x8BF JUMP JUMPDEST PUSH2 0x982 PUSH1 0x80 DUP4 ADD DUP5 PUSH2 0x92C JUMP JUMPDEST SWAP7 SWAP6 POP POP POP POP POP POP JUMP JUMPDEST PUSH0 DUP1 PUSH0 PUSH1 0x60 DUP5 DUP7 SUB SLT ISZERO PUSH2 0x9A3 JUMPI PUSH2 0x9A2 PUSH2 0x7B2 JUMP JUMPDEST JUMPDEST PUSH0 PUSH2 0x9B0 DUP7 DUP3 DUP8 ADD PUSH2 0x7FC JUMP JUMPDEST SWAP4 POP POP PUSH1 0x20 PUSH2 0x9C1 DUP7 DUP3 DUP8 ADD PUSH2 0x82F JUMP JUMPDEST SWAP3 POP POP PUSH1 0x40 PUSH2 0x9D2 DUP7 DUP3 DUP8 ADD PUSH2 0x82F JUMP JUMPDEST SWAP2 POP POP SWAP3 POP SWAP3 POP SWAP3 JUMP JUMPDEST PUSH0 DUP3 DUP3 MSTORE PUSH1 0x20 DUP3 ADD SWAP1 POP SWAP3 SWAP2 POP POP JUMP JUMPDEST PUSH32 0x436F6E74726570617274696520696E616374697665206F7520696E6578697374 PUSH0 DUP3 ADD MSTORE PUSH32 0x616E746500000000000000000000000000000000000000000000000000000000 PUSH1 0x20 DUP3 ADD MSTORE POP JUMP JUMPDEST PUSH0 PUSH2 0xA46 PUSH1 0x24 DUP4 PUSH2 0x9DC JUMP JUMPDEST SWAP2 POP PUSH2 0xA51 DUP3 PUSH2 0x9EC JUMP JUMPDEST PUSH1 0x40 DUP3 ADD SWAP1 POP SWAP2 SWAP1 POP JUMP JUMPDEST PUSH0 PUSH1 0x20 DUP3 ADD SWAP1 POP DUP2 DUP2 SUB PUSH0 DUP4 ADD MSTORE PUSH2 0xA73 DUP2 PUSH2 0xA3A JUMP JUMPDEST SWAP1 POP SWAP2 SWAP1 POP JUMP JUMPDEST PUSH32 0x4E487B7100000000000000000000000000000000000000000000000000000000 PUSH0 MSTORE PUSH1 0x11 PUSH1 0x4 MSTORE PUSH1 0x24 PUSH0 REVERT JUMPDEST PUSH0 PUSH2 0xAB1 DUP3 PUSH2 0x810 JUMP JUMPDEST SWAP2 POP PUSH2 0xABC DUP4 PUSH2 0x810 JUMP JUMPDEST SWAP3 POP DUP3 DUP3 ADD SWAP1 POP DUP1 DUP3 GT ISZERO PUSH2 0xAD4 JUMPI PUSH2 0xAD3 PUSH2 0xA7A JUMP JUMPDEST JUMPDEST SWAP3 SWAP2 POP POP JUMP JUMPDEST PUSH32 0x436F6E74726570617274696520696E6578697374616E74650000000000000000 PUSH0 DUP3 ADD MSTORE POP JUMP JUMPDEST PUSH0 PUSH2 0xB0E PUSH1 0x18 DUP4 PUSH2 0x9DC JUMP JUMPDEST SWAP2 POP PUSH2 0xB19 DUP3 PUSH2 0xADA JUMP JUMPDEST PUSH1 0x20 DUP3 ADD SWAP1 POP SWAP2 SWAP1 POP JUMP JUMPDEST PUSH0 PUSH1 0x20 DUP3 ADD SWAP1 POP DUP2 DUP2 SUB PUSH0 DUP4 ADD MSTORE PUSH2 0xB3B DUP2 PUSH2 0xB02 JUMP JUMPDEST SWAP1 POP SWAP2 SWAP1 POP JUMP JUMPDEST PUSH0 PUSH2 0xB4C DUP3 PUSH2 0x810 JUMP JUMPDEST SWAP2 POP PUSH2 0xB57 DUP4 PUSH2 0x810 JUMP JUMPDEST SWAP3 POP DUP3 DUP3 MUL PUSH2 0xB65 DUP2 PUSH2 0x810 JUMP JUMPDEST SWAP2 POP DUP3 DUP3 DIV DUP5 EQ DUP4 ISZERO OR PUSH2 0xB7C JUMPI PUSH2 0xB7B PUSH2 0xA7A JUMP JUMPDEST JUMPDEST POP SWAP3 SWAP2 POP POP JUMP JUMPDEST PUSH32 0x4E487B7100000000000000000000000000000000000000000000000000000000 PUSH0 MSTORE PUSH1 0x12 PUSH1 0x4 MSTORE PUSH1 0x24 PUSH0 REVERT JUMPDEST PUSH0 PUSH2 0xBBA DUP3 PUSH2 0x810 JUMP JUMPDEST SWAP2 POP PUSH2 0xBC5 DUP4 PUSH2 0x810 JUMP JUMPDEST SWAP3 POP DUP3 PUSH2 0xBD5 JUMPI PUSH2 0xBD4 PUSH2 0xB83 JUMP JUMPDEST JUMPDEST DUP3 DUP3 DIV SWAP1 POP SWAP3 SWAP2 POP POP JUMP JUMPDEST PUSH32 0x436F6E747265706172746965206578697374652064656A610000000000000000 PUSH0 DUP3 ADD MSTORE POP JUMP JUMPDEST PUSH0 PUSH2 0xC14 PUSH1 0x18 DUP4 PUSH2 0x9DC JUMP JUMPDEST SWAP2 POP PUSH2 0xC1F DUP3 PUSH2 0xBE0 JUMP JUMPDEST PUSH1 0x20 DUP3 ADD SWAP1 POP SWAP2 SWAP1 POP JUMP JUMPDEST PUSH0 PUSH1 0x20 DUP3 ADD SWAP1 POP DUP2 DUP2 SUB PUSH0 DUP4 ADD MSTORE PUSH2 0xC41 DUP2 PUSH2 0xC08 JUMP JUMPDEST SWAP1 POP SWAP2 SWAP1 POP JUMP INVALID LOG2 PUSH5 0x6970667358 0x22 SLT KECCAK256 0xEA 0xD1 0xBF 0xAD ADDMOD 0xB2 SAR LOG4 ORIGIN PUSH3 0xE17936 BLOBBASEFEE LOG2 0xB0 SSTORE CALLER PUSH15 0x7C00B4F07EB23C6AD2C7D0BB986473 PUSH16 0x6C634300081A00330000000000000000 "
				},
				"gasEstimates": {
					"creation": {
						"codeDepositCost": "639600",
						"executionCost": "668",
						"totalCost": "640268"
					},
					"external": {
						"ajouterContrepartie(address,uint256,uint256)": "infinite",
						"calculerRisque(address)": "infinite",
						"contreparties(address)": "infinite",
						"expositions(address,address)": "infinite",
						"mettreAJourExposition(address,uint256)": "infinite"
					}
				},
				"methodIdentifiers": {
					"ajouterContrepartie(address,uint256,uint256)": "b4239e9b",
					"calculerRisque(address)": "8e068eb0",
					"contreparties(address)": "760b1eee",
					"expositions(address,address)": "3edf688d",
					"mettreAJourExposition(address,uint256)": "1922701e"
				}
			},
			"storageLayout": {
				"storage": [
					{
						"astId": 17,
						"contract": "Smartcontract.sol:GestionnaireRisqueContrepartie",
						"label": "contreparties",
						"offset": 0,
						"slot": "0",
						"type": "t_mapping(t_address,t_struct(Contrepartie)12_storage)"
					},
					{
						"astId": 23,
						"contract": "Smartcontract.sol:GestionnaireRisqueContrepartie",
						"label": "expositions",
						"offset": 0,
						"slot": "1",
						"type": "t_mapping(t_address,t_mapping(t_address,t_uint256))"
					}
				],
				"types": {
					"t_address": {
						"encoding": "inplace",
						"label": "address",
						"numberOfBytes": "20"
					},
					"t_bool": {
						"encoding": "inplace",
						"label": "bool",
						"numberOfBytes": "1"
					},
					"t_mapping(t_address,t_mapping(t_address,t_uint256))": {
						"encoding": "mapping",
						"key": "t_address",
						"label": "mapping(address => mapping(address => uint256))",
						"numberOfBytes": "32",
						"value": "t_mapping(t_address,t_uint256)"
					},
					"t_mapping(t_address,t_struct(Contrepartie)12_storage)": {
						"encoding": "mapping",
						"key": "t_address",
						"label": "mapping(address => struct GestionnaireRisqueContrepartie.Contrepartie)",
						"numberOfBytes": "32",
						"value": "t_struct(Contrepartie)12_storage"
					},
					"t_mapping(t_address,t_uint256)": {
						"encoding": "mapping",
						"key": "t_address",
						"label": "mapping(address => uint256)",
						"numberOfBytes": "32",
						"value": "t_uint256"
					},
					"t_struct(Contrepartie)12_storage": {
						"encoding": "inplace",
						"label": "struct GestionnaireRisqueContrepartie.Contrepartie",
						"members": [
							{
								"astId": 3,
								"contract": "Smartcontract.sol:GestionnaireRisqueContrepartie",
								"label": "portefeuille",
								"offset": 0,
								"slot": "0",
								"type": "t_address"
							},
							{
								"astId": 5,
								"contract": "Smartcontract.sol:GestionnaireRisqueContrepartie",
								"label": "scoreCredit",
								"offset": 0,
								"slot": "1",
								"type": "t_uint256"
							},
							{
								"astId": 7,
								"contract": "Smartcontract.sol:GestionnaireRisqueContrepartie",
								"label": "limiteExposition",
								"offset": 0,
								"slot": "2",
								"type": "t_uint256"
							},
							{
								"astId": 9,
								"contract": "Smartcontract.sol:GestionnaireRisqueContrepartie",
								"label": "expositionCourante",
								"offset": 0,
								"slot": "3",
								"type": "t_uint256"
							},
							{
								"astId": 11,
								"contract": "Smartcontract.sol:GestionnaireRisqueContrepartie",
								"label": "estActif",
								"offset": 0,
								"slot": "4",
								"type": "t_bool"
							}
						],
						"numberOfBytes": "160"
					},
					"t_uint256": {
						"encoding": "inplace",
						"label": "uint256",
						"numberOfBytes": "32"
					}
				}
			},
			"userdoc": {
				"kind": "user",
				"methods": {},
				"version": 1
			}
		}
	}
}